:10000000D9CA189518951895189518951895189592
:1000100057CA189518951895189518951895189504
:10002000189518951895000016021100C5011D02BB
:10003000B501E401EE01F8010202CF01C501CF01D3
:10004000CF010C020C021D021D021D021D02010146
:100050001F03DA02010003062603082603083403FF
:10006000083C03084203083C03106003083C0308F3
:100070006703083C03086003209D0308BD0320C3F9
:100080000310D30308BD0308ED03FB0001017E0547
:10009000C504016D0501310506D104016105012585
:1000A0000504FB0404F5040EBF04017305013705C4
:1000B00002DD0401550501190502D704015B0501A4
:1000C0001F0526E904014905010D050EE304014F52
:1000D000050113051F3D0501010503430505010544
:1000E00014790542CB04016705012B0502EF0402D8
:1000F0000705FB0003000157062D060231061033E9
:1001000006062B060135060B39060C3706482F0666
:10011000013B06FE058D4306FE02FA1906021D0686
:10012000075306091F060617060121060B25060CB4
:100130002306175506311B06012706C95106FE0185
:10014000044F06FFFC4D06FE09DE1506FE0AE0FD23
:100150000502F90510F70506FF0501F50507ED0590
:1001600004F1050CF30548FB0501EF05FE0B8711B3
:1001700006020D06100B0606130601090607010606
:100180000405060C0706480F06010306FE4887E92A
:100190000502E50510E30506EB0501E10507D905B4
:1001A00004DD050CDF0548E70501DB05FE0587D505
:1001B0000502D105013D0608410601290603450651
:1001C00003CF0506D70501CD05074B0604C9050178
:1001D00049060BCB05123F0605470631D30501C77B
:1001E00005FB00002207110024075707FB06120831
:1001F0002C0888088808540884083A0849080F071A
:10020000A0085B0717072607D1087F3001D70AD35C
:100210000AFE4000D10AFE2000CF0AFE1000CD0ADF
:10022000FE0800CB0AFE0400C90AFE0200C70AFE4F
:100230000100C50AE0C30A10C10A14D50A04BF0AA6
:10024000FB004100A0002E176003E100000020E049
:100250000DC044E0249FF801E00DF11D428153815F
:10026000453A6FE1560708F032E02395263988F3C6
:10027000032F08951DDAA02F80E090E00DC00A2F13
:1002800058D107ED51D100E04FD1B02F00E051D14E
:100290000B2F0170900F83958A3088F3953010F002
:1002A00000E001C000E112E0E4E00DCA8A93802F73
:1002B00040D107EC39D104E937D100E835D10AE95A
:1002C00033D100E036D1082F34D107ED2DD100E035
:1002D0002BD107FB00E0E6F72CD1899108958A9392
:1002E000802F27D10DE320D10AE21ED100E81CD1D6
:1002F00007EA1AD100E01DD1082F1BD107ED14D158
:1003000000E012D107FB00E0E6F713D189910895D0
:10031000CDD9280180E013D0902F02C0902F839573
:1003200082010DD0901711F08A30C0F38A3010F09E
:10033000A1E001C0A0E0B02F8D01E6E0C2C9E199C3
:10034000FECF1FBB0EBBE09A0DB310E00895AAD9F3
:10035000802F4901912FDA012B016A847B848395D8
:100360000091E000E6E2F0E058C9282FE8ECF0E068
:100370000081118195D010E0E8ECF0E0208131811E
:10038000200F311F2083318358C0282FE4EDF0E087
:100390000081118185D010E0E4EDF0E0EFCF282F4F
:1003A000EAECF0E0008111817BD010E0EAECF0E0B3
:1003B00020813181200F311F20833183B301A201BD
:1003C0009D01092F40D039C0282FECECF0E00081CE
:1003D000118166D010E0ECECF0E0D0CF282FEEECED
:1003E000F0E0008111815CD010E0EEECF0E0C6CFCF
:1003F000282FE0EDF0E00081118152D010E0E0ED17
:10040000F0E0BCCF282FE2EDF0E00081118148D070
:1004100010E0E2EDF0E0B2CF282FEAECF0E000814E
:1004200011813ED010E0EAECF0E0A8CF0DE000939F
:10043000E00000E0F40100830183823008F080E0F6
:10044000082FECE03AC934D9F901013049F4AAEC9B
:10045000B0E02D913C910280138020153105C0F44D
:10046000023051F4EAECF0E020813181FA0102809F
:1004700013802015310560F4033081F4EAECF0E0DC
:1004800000811181FB01228133810217130730F0B3
:1004900000811181EAECF0E000831183E4E013C9EC
:1004A00007D9B801822F653A0FE1700710F421E0F7
:1004B00003C022E0655A7F4146E08B0199D8B02FF6
:1004C000962F990F990F813011F4A0E004C082306B
:1004D00011F49395A8E0022F2CD002ED25D00B2F1C
:1004E00023D0092F21D00A2F1FD090E003C000E0B5
:1004F0001BD093959430D8F3A0E0B0E008C014D09E
:10050000FD01E75CFC4F00838D0122D01196A830DD
:1005100001E0B00700E098F30CD0823010F001E069
:1005200001C000E0E4E0CFC80FB9779BFECF0FB168
:100530000895002319F4C29AC09A0895013019F45D
:10054000C098C2980895023011F4C09AC2980895D4
:10055000E9E3F3E0E00FF11F1081012F02950F7026
:100560001295107F010F00950083089501580F57D1
:1005700010F400E0089501E0089595D8D801C9016C
:10058000742E562E672E09851A854424550F852E04
:1005900052B9E0EAF0E0228133810217130729F013
:1005A000258123952583028313830091A400EEE423
:1005B000F0E033C84092A50001E2701669F402E051
:1005C0000093A400E0EAF0E04082418250B801B11B
:1005D000062901B904EA08C101E3701651F4EFCF0E
:1005E00002E00093A400E0EAF0E04082418204E4EB
:1005F000FBC001E47016A1F301E00093A400F5C074
:10060000E0EAF0E005810395058306B7102F17FD9A
:100610000FC00091A500043020F04092A500E8D062
:10062000E4C002E00093A400058103950583DDC0CA
:1006300001B1087F0093A4004092A500D6C040926B
:10064000A50001E00093A40004E9CEC04092A500FB
:1006500002E00093A40001E2701621F001E370169D
:1006600011F4839483B8BFC04092A50002E00093C8
:10067000A4000C9103B9B7C04092A50002E000931A
:10068000A400A8CF4092A500E0EAF0E0008111812B
:100690000F5F1F4F0083118300811181A00FB11FD5
:1006A000008111810817190708F3008111810817CB
:1006B000190708F49AC001E00093A4004394C4CF42
:1006C0004092A50002E00093A40004EC8DC040928B
:1006D000A50003B14BDF0023C1F4E0EAF0E0208184
:1006E0003181FC0131972E173F0778F403B1E0EA1E
:1006F000F0E020813181A20FB31F0C9300811181A2
:100700000F5F1F4F00831183DDCF002379F4E0EAF0
:10071000F0E02081318101972817390738F003B1C3
:1007200020813181A20FB31F0C93C5CF013009F096
:100730005CC002E00093A40056C04092A50003B143
:1007400015DF002349F4E0EAF0E020813181FC016B
:1007500031972E173F0750F2002341F7E0EAF0E00F
:100760002081318101972817390700F303B12081D7
:100770003181A20FB31F0C9332C04092A50002E05A
:100780000093A40034CF4092A50002E00093A4009F
:100790000C9103B9E0EAF0E000811181019708179C
:1007A000190708F592CF4092A500E0EAF0E0008139
:1007B00011810F5F1F4F0083118300811181A00FF2
:1007C000B11F0C9103B902E00093A40000811181D4
:1007D00001970817190730F306C04092A50001E001
:1007E0000093A400439404E806BF042DEBE066C721
:1007F00001E00093A40004E906BF0895F80103B3E3
:100800000370048305811481011719F40181039594
:1008100001C000E001830481058301810330F8F108
:1008200000E00183028103830381002319F0048126
:10083000028306C00381002319F404810330B9F355
:100840000281033079F40381023061F406810630BD
:1008500048F4068103950683068140E050E0C3D644
:1008600000E011C00281033081F40381013069F49A
:100870000681002351F006810A950683068140E037
:1008800050E0B1D601E0008308950281033029F4DD
:100890000381002311F402E0F6CF03E00083089502
:1008A000F80103B3028302811381011719F4018156
:1008B000039505C002811381011711F000E0018347
:1008C000028103830181053068F10091E00001306D
:1008D00049F10091E0000F3029F100E0018322236B
:1008E00021F00091E0000E3029F4028100FF02C0E7
:1008F00000E006C0028100721481011719F403E0C0
:1009000000830895028100731581011711F401E03D
:10091000F7CF028108731681011711F402E0F0CFBE
:1009200004E000830895F80100E010B312831381FE
:100930002281121741F41091E000173021F4118147
:100940001395118301C00183128113831181153026
:1009500048F01091E000173029F4018302810083F0
:100960008F0101D00895A4D6D80180E0FD01048153
:100970001581068317830C91ECE8F0E04EC601E088
:10098000FD01048385838FE2B9C002E0FD01048389
:10099000858380E3B3C003E0FD010483858381E3A5
:1009A000ADC004E0FD010483858382E3A7C005E0B8
:1009B000FD010483858383E3A1C006E0FD01048378
:1009C000858384E39BC007E0FD010483858385E381
:1009D00095C008E0FD010483858386E38FC009E0AC
:1009E000FD010483858387E389C00AE0FD01048358
:1009F000858388E383C00BE0FD010483858382E463
:100A00007DC00CE0FD010483858383E477C00DE0A5
:100A1000FD010483858387E071C00EE0FD0104833E
:100A2000858388E06BC00FE0FD010483858389E046
:100A300065C000E1FD01048385838AE05FC001E1B8
:100A4000FD01048385838BE059C002E1FD0104832D
:100A500085838CE053C003E1FD01048385838DE031
:100A60004DC004E1FD01048385838EE047C005E1AC
:100A7000FD01048385838FE041C006E1FD0104830D
:100A8000858380E13BC007E1FD010483858381E12B
:100A900035C008E1FD010483858382E12FC009E1AF
:100AA000FD010483858383E129C00AE1FD010483FC
:100AB000858384E123C00BE1FD010483858385E107
:100AC0001DC00CE1FD010483858386E117C00DE1A3
:100AD000FD010483858387E111C00EE1FD010483DC
:100AE000858388E10BC00FE1FD010483858389E1E3
:100AF00005C00CE0FD010483858387E4082FE4E052
:100B0000E2C5FA0131813C5F39F03A9589F03A95B6
:100B100089F03A9589F008C0222321F02091E00065
:100B20002E3011F420E001C024E0F8012083089564
:100B300023E0FBCF21E0F9CF22E0F7CFB9D5D801F0
:100B400080E0F9010181005801830181002319F43B
:100B500001810B37A0F4FD0144815581F901018128
:100B60004017580761F00091E000073041F401811F
:100B7000FD01048385830481158106831783F901B0
:100B8000128100E02381020FE4EFF0E04AC587E024
:100B900093C088E091C089E08FC08AE08DC08BE06F
:100BA0008BC08CE089C08DE087C08EE085C08FE06F
:100BB00083C080E181C081E17FC082E17DC083E1AB
:100BC0007BC084E179C085E177C086E175C087E1AB
:100BD00073C088E171C089E16FC08AE16DC08BE1AB
:100BE0006BC08CE169C08DE167C08EE165C08FE1AB
:100BF00063C080E261C081E25FC082E25DC083E2E7
:100C00005BC084E259C085E257C086E255C087E2E6
:100C100053C088E251C089E24FC08AE24DC08BE2E6
:100C20004BC08CE249C08DE247C08EE245C08FE2E6
:100C300043C080E341C081E33FC082E33DC083E322
:100C40003BC084E339C085E337C086E335C087E322
:100C500033C088E331C089E32FC08AE32DC08BE322
:100C60002BC08CE329C08DE327C08EE325C08FE322
:100C700023C080E421C081E41FC082E41DC083E45E
:100C80001BC084E419C085E417C086E415C087E45E
:100C900013C088E411C089E40FC08AE40DC08BE45E
:100CA0000BC08CE409C08DE407C08EE405C0FD01D3
:100CB0000481158106831783082FE4E004C58A9315
:100CC000F8012181203250F020E021838281887256
:100CD000282F06D043E050E0082F85D4899108954D
:100CE000222339F420E0F801248320E2258320E345
:100CF00008C0283041F420E0F801248320E2258355
:100D000028E326830895203239F420E2F801248371
:100D100020E0258320E1F5CF283221F720E2F801F9
:100D2000248320E0258328E1ECCF63D2A8950091AD
:100D3000DF00002319F1E6EAF0E000A111A11A9307
:100D40000A9370E060E051E041E324E030E00CEB16
:100D500010E013DC0093DB000091DB00002371F056
:100D60004CEB50E02091D9000EEA10E0CADE2CEBEB
:100D700030E006EA10E0E2DE0093DD000091D600EC
:100D80000023A9F601E00093D60003E212E01A93D3
:100D90000A936FE172E047EF50E01091DC0026EC1F
:100DA00030E00091D700D3DA0093D70078D305EB79
:100DB00010E024DD0091DF00002351F42091D900E0
:100DC0000EEA10E06DDD06EA10E0ADDD0093DD0017
:100DD000E6EAF0E000A111A1012B29F40091E00066
:100DE00006D00093E00002E00093D6009FCF8A93E4
:100DF000E2EEF1E012C48BE0E1EEF0E0008D118D47
:100E0000228D338D201B310B220F331FE6EAF0E0D9
:100E100020A331A304A315A3082F899108958EE080
:100E200000E0E6EAF0E000A301A329D3F5CF0091AA
:100E3000AE00002339F48EE000E0E6EAF0E000A323
:100E400001A3EACF8DE0F8CF8FE0F6CF26EA30E0BD
:100E50000EEA10E089D30093DE000091AF0003306A
:100E6000F0F00091A7000330D0F00091DE000D30CB
:100E7000B0F480E014E0019FE1EEF0E0E00DF11D40
:100E8000008D118D228D338D201B310B220F331FCE
:100E9000E6EAF0E020A331A306A717A7C6CF00918A
:100EA000B700023011F48FE0BBCF8DE0B9CF0EEA6E
:100EB00010E005DFC7CF0091AE000023C1F482E04F
:100EC000E1EEF0E00281138120813181021B130BDE
:100ED000000F111FE6EAF0E000A311A3E1EEF0E03D
:100EE00000811181E6EAF0E002A313A395CF1091EF
:100EF000B700123039F42091D9003091DF00232B54
:100F000009F4A2CF113071F41091D9002091DF00C3
:100F1000122B41F481E00EE310E0E6EAF0E000A3DA
:100F200011A37ACF1091B500123011F480E184CF73
:100F3000033059F400E010E0E6EAF0E0028F038F9E
:100F4000048F058F89E004E0EACF013099F4E6EAE6
:100F5000F0E0228D338D233612E0310758F4028DF4
:100F6000138D0F5F1F4F028F138F00E0048F058FCB
:100F70008DE065CF0130E9F4E6EAF0E0228D338DB3
:100F8000233612E03107A8F000E0028F038F83E0E0
:100F9000E1EEF0E00485158526853785201B310BB1
:100FA000220F331FE6EAF0E020A331A306A317A324
:100FB00033CF023091F4E6EAF0E0248D358D23360C
:100FC00012E0310750F4048D158D0F5F1F4F048F11
:100FD000158F00E0028F038FCBCF0230E9F4E6EAF1
:100FE000F0E0048D158D033622E01207A8F000E032
:100FF000048F058F84E0E1EEF0E000851185228505
:101000003385201B310B220F331FE6EAF0E020A3CB
:1010100031A300A711A700CF00E0E6EAF0E0028FBD
:10102000038FA4CF0091AE00013059F4E6EAF0E05E
:10103000028D138D0F5F1F4F028F138F8DE000E025
:10104000FECE023079F4E6EAF0E0048D158D0F5FF4
:101050001F4F048F158FF2CF0091AE00023099F32D
:10106000013021F30091AE00033009F0EBCE89E0AE
:1010700004E052CF0091B500023009F457CF00913F
:10108000AE000330A1F38AE001E00093DA0000E251
:1010900043CF0091DA00002309F407CF00E000936A
:1010A000DA0087E008E038CFE6EAF0E00481158155
:1010B000268137812017310790F485E0E1EEF0E0DA
:1010C0000089118922893389201B310B220F331F9C
:1010D000E6EAF0E020A331A302A713A79DCE0217F2
:1010E000130790F486E0E1EEF0E00481158126819B
:1010F0003781201B310B220F331FE6EAF0E020A3DB
:1011000031A304A715A788CE8AE001E712E005CF36
:1011100088E00091DD0014E0019FE1EEF0E0E00DD9
:10112000F11D0081118122813381201B310B220F9F
:10113000331FE6EAF0E020A331A306A717A76CCE81
:101140000091B500023009F4F1CE0091DC000130CD
:1011500069F4E6EAF0E024A135A1E1EEF0E0468989
:1011600057892417350710F48CE082CF023059F4E8
:10117000E6EAF0E024A135A1EFE1F2E040815181FF
:101180002417350788F3033059F4E6EAF0E004A1A8
:1011900015A1E3E2F2E0208131810217130720F369
:1011A00084CEE6EAF0E006A9039506AB0091DC00E8
:1011B000043018F001E00093DC000091DC0042E014
:1011C00050E011D20091DC00013049F4E1EEF0E092
:1011D00004891589E6EAF0E004A315A3C5CF02301F
:1011E00029F4EDE1F2E000811181F4CF033071F7D1
:1011F000F8CF60D2F2D00093DF0004E009BF78940A
:1012000002E80FBD09E10EBD00E007BD0FEF06BD0E
:1012100000E00BBD0ABD0AE101BD01BD00E50DB94D
:1012200001E00EB90091DF00002321F00FEF01BBB8
:101230000CEF02C000E001BB04BB0FE207BBDFD034
:101240006BD004E010E064D8112311F40130B9F43C
:1012500001EE10E0FCD7902F81E00BC0082F0AD8D8
:10126000003022E0120721F4082F20D8082F37D8A9
:101270008395981798F700E044E050E0B4D100E07F
:1012800010E046D8212F1093BB00273010F4013016
:1012900019F403E00093BB0002E010E039D8212FDD
:1012A0001093DC00243020F4222311F0013019F4D3
:1012B00001E00093DC000091DC00013029F4E1EE54
:1012C000F0E0048915890BC0023019F4EDE1F2E079
:1012D00004C0033041F4E1E2F2E000811181E6EA6A
:1012E000F0E004A315A303E010E012D8002349F4B2
:1012F0002091DF00222329F4212F0EEA10E0F0DCF8
:1013000009C000E00093B20000E20093B30000E3E4
:101310000093B400E2E0D9C100E00093D60000934E
:10132000D9000093DA0001E00093DB0000E010E058
:10133000E6EAF0E0028F038F048F058F068F078F98
:101340000093D80004830583068307830FE9009385
:10135000A6001093A9000FEF0093A8001093A70018
:101360001093B20000E20093B30000E30093B400D6
:101370001093AF0004E00093AE001093B1000FEFA4
:101380000093B00003E00093B5000093BA001093FF
:10139000B9000093B7000093B8001093B600109303
:1013A000BC001093BD001093BE001093BF0002E676
:1013B00012E000A311A300E00093BB0001E0009342
:1013C000DC0000E00093D700E1EEF0E0048915892D
:1013D000E6EAF0E004A315A3089520E027BB00E2AD
:1013E00008BB00E004C016B31072210F039509304A
:1013F000D0F3253010F400E0089501E0089558D1AD
:1014000001E097D80BE190D800E08ED800E08CD8AE
:101410000CE28AD880E003C000E086D8839584304F
:10142000D8F380E026C004E0809FA1EEB0E0A00DDC
:10143000B11D00E079D820E02D930C93119700E0C6
:1014400073D810E02D913C91200F311F3C932E93C7
:1014500000E06AD820E0FD012283038300E064D825
:1014600010E0FD0122813381200F311F228333835D
:1014700083958639C0F200E05CD8E4E024C11AD13B
:1014800080E090E006C000E0FC01E75CFC4F0083D8
:101490000196883001E09007B0F3E2E016C1E6EA79
:1014A000F0E000A111A1012B39F000A111A1015020
:1014B000104000A311A3089501E00093D9000895FE
:1014C000FA93EA930A925A934A933A932A931A9375
:1014D0000A933FB700E00BBDE6EAF0E0068D178DFA
:1014E000F801E75CFC4F008110E046E02091BB0072
:1014F000421B84D00ABDE6EAF0E002A9039502ABE4
:101500000091D800023049F400E00093D800068D25
:10151000178D0F5F1F4F068F178F068D178D0830A1
:1015200021E0120718F000E0068F078F068D178D57
:101530000B3F20E0120768F00091D600023039F02E
:10154000013029F40091E00041E050E04CD02093BC
:10155000D6003FBF0991199129913991499159912B
:101560000990E991F9911895F901328120E0F8018B
:1015700002810C73200F8901EAE0F2E052C001E021
:10158000089502E0089503E0089504E0089505E059
:10159000089506E0089507E0089508E0089509E039
:1015A00008950AE008950BE008950CE008950FE017
:1015B0000895BCC00FE90DBF00E00EBFC0E8D0E049
:1015C0008BD0002309F098D0B0DB11D0F2CFE19995
:1015D000FECF08954F5F5F4F4EBB5FBBF894E29A1A
:1015E000E19A0FBE08950FB6F2DF0DBBF5CFE1CF44
:1015F0004A951AF016950795FBCF08954A951AF06B
:1016000015950795FBCF0895759165915591459175
:10161000159011FA259035900895F9DF041B10E01C
:1016200003C0F4DF041B150B20E030E005C0ECDF45
:10163000041B150B260B370BB8F010FC17C0459197
:101640000590E00FF11F0417100540E02407340750
:1016500058F436F404910024F101E01BF0090994D8
:10166000E00FF11F25903590F101099411F4D6F7A0
:10167000F1CF31960EF0319650E060E070E0459188
:101680004B3F48F089F34F3F29F04E3F11F07591E1
:10169000659155914591041B150B260B370B39F3BA
:1016A00018F3E7CF9A928A927A926A925A924A9261
:1016B000BA93AA939A938A930895998488847F8091
:1016C0006E805D804C80BB81AA8199818881F0E029
:1016D000EC0FFD1FEF01089501E0089520E006D012
:1016E000E9F70895259102D0E9F708952D93015067
:1016F0001040202F212B089582E492E0FC010591F7
:101700001491FC013296A591B491FC013496259177
:101710003491422F432B19F0F901E4DF01C0DEDFE1
:10172000069612E08E34910748F30895FFCF00002B
:1017300000000100000000000000000000000000A8
:101740000000000000000000000000000000000099
:101750000000000000000000000000000000000089
:0F17600000000000000000000000000000000D6D
:00000001FF
:00000001FF
