:1000000002CB189518951895189518951895189568
:1000100081CA1895189518951895189518951895DA
:10002000189518951895000001021100BE010702ED
:10003000B001D901E101E901F101C601BE01C6012A
:10004000C601F901C6010702070207020702010102
:100050007F05A604016A0501240506B404015C05B8
:1000600001160504E50404DE040E9F040171050178
:100070002B0502C204014E0501080502BB0401550F
:1000800005010F0526D00401400501FA040EC9043C
:100090000147050101051F320501EC0408EC0414B9
:1000A000780542AD04016305011D0502D70401393D
:1000B0000501F304FB0003000182063806023C063A
:1000C0000E3606023E060740060B44060C42064862
:1000D0003A06014606FE02C87806FE02C56006031F
:1000E0007406FE02F7240602280607700607220699
:1000F000022A06072C060B30060C2E06126E060589
:100100007206312606013206FE01CD6C06FFFC6A3E
:1001100006FE09FE2006FE0AC008060204060E0AB4
:10012000060202060700060BFC050CFE0510F8058A
:1001300038060601FA05FE0B871C060218060E1E7D
:10014000060216060714060B10060C1206100C0603
:10015000381A06010E06FE0E874C060250060E4A9D
:10016000060252060754060B58060C5606484E0661
:10017000015A068D80060C7C06FE01F47A06FE0408
:100180000C7606FE32EEF40502F0050A7E0604F651
:100190000502EE0507EC050BE8050CEA0510E40581
:1001A00038F20501E605FE0587E00502DC05014899
:1001B00006085E0601340603620601E20502DA055E
:1001C00007D80507680604D4050166060BD6051294
:1001D0005C0605640631DE0501D005FB000043071F
:1001E000110045077C07220731084B08A408A40822
:1001F0007408A008590868083007C5088007380740
:100200004707E2087F3001000BFC0AFE4000FA0AB3
:10021000FE2000F80AFE1000F60AFE0800F40AFEAE
:100220000400F20AFE0200F00AFE0100EE0AE0EC11
:100230000A10EA0A14FE0A04E80AFB004100A000C2
:100240007C177A03E100000020E00DC044E0249F09
:10025000F801E00DF11D42815381413060E2560703
:1002600008F032E023952A3588F3032F089548DA01
:10027000A02F80E090E00DC00A2F51D107ED4AD1A8
:1002800000E048D1B02F00E04AD10B2F0170900F51
:1002900083958A3088F3953010F000E001C000E1CA
:1002A00012E0E4E037CA8A93802F39D107EC32D1CB
:1002B00004E930D100E82ED10AE92CD100E02FD199
:1002C000082F2DD107ED26D100E024D107FB00E057
:1002D000E6F725D1899108958A93802F20D10DE3E7
:1002E00019D10AE217D100E815D107EA13D100E0CD
:1002F00016D1082F14D107ED0DD100E00BD107FB6B
:1003000000E0E6F70CD189910895F8D9280180E042
:1003100013D0902F02C0902F839582010DD090179B
:1003200011F08A30C0F38A3010F0A1E001C0A0E0E3
:10033000B02F8D01E6E0ECC9E199FECF1FBB0EBBEB
:10034000E09A0DB310E00895D6D9D801822ECA01E3
:100350002B0169847A840091DF00E6E2F0E086C92F
:10036000EAECF0E000811181A3D0EAECF0E000813A
:1003700011810F5F1F4F0083118349C0E6EDF0E04C
:100380000081118195D0E6EDF0E0F1CFECECF0E0EA
:10039000008111818DD0ECECF0E0008111810F5FC4
:1003A0001F4F00831183B301A2019C01082D31D09E
:1003B0002EC0EEECF0E0008111817AD0EEECF0E09E
:1003C000D6CFE0EDF0E00081118172D0E0EDF0E0F9
:1003D000CECFE2EDF0E0008111816AD0E2EDF0E0F5
:1003E000C6CFE4EDF0E00081118162D0E4EDF0E0F1
:1003F000BECFECECF0E0008111815AD0ECECF0E0E3
:10040000B6CF0DE00093DF0000E00D930C93EBE01E
:100410007CC976D9DA010130A1F4ECECF0E040813E
:100420005181F9010280138040155105C8F5ECECAB
:10043000F0E040815181F9010080118040155105A3
:1004400078F10230B9F4ECECF0E020813181FD016B
:10045000428153812417350750F4ECECF0E0208101
:1004600031814D915C9111972417350718F40D9146
:100470001C9118C00330D1F4ECECF0E00081118144
:10048000FB01228133810217130748F4ECECF0E002
:10049000008111812D913C910217130738F4FB0163
:1004A00000811181ECECF0E000831183E4E032C9BB
:1004B00029D9C801813000E2900710F401E003C09F
:1004C00002E0805090422BD002ED24D046E08C0117
:1004D000B8D820D0082F000F000F1CD000E01AD091
:1004E00080E003C000E016D083958430D8F380E02C
:1004F00090E008C00FD0FC01E55BFD4F00838C014C
:100500001DD00196803102E0900700E098F307D0FB
:10051000E2E002C90FB9779BFECF0FB10895002327
:1005200019F4C29AC09A0895013019F4C098C2987B
:100530000895023011F4C09AC2980895EBE4F2E0F5
:10054000E00FF11F1081012F02950F701295107F9F
:10055000010F0095008308950058035040F00A955C
:1005600031F0045021F0085011F0005111F400E076
:10057000089501E008950895002311F000E0089522
:1005800001E00895BBD8C801B22FA32F042F452F37
:10059000462E572E2E813F81000F02B9E0EAF0E08F
:1005A000008111812017310729F00581039505830A
:1005B00020833183B23008F440E00091A20000585B
:1005C00009F474C0085009F47CC0085109F468C0EB
:1005D000015649F00A9509F444C00A9551F10D55A8
:1005E00009F45EC057C000E00093A5002B2F8C01DA
:1005F000C2DFA13111F0A13269F412E000E06FD046
:1006000000E00093A40040B801B1052901B904EA53
:1006100006BF5FC0A13311F0A13441F412E000E045
:100620005ED000E00093A40004E4F2CF11E001E00A
:100630004FC000E00093A5002B2F8C019CDF1B2FE7
:100640009C0102E099DF002339F011E001E047D07E
:10065000A13229F404E9DCCF12E000E040D004E844
:10066000D7CF06B7102F17FD0FC00091A50004309B
:1006700068F100E00093A500A13111F0A13211F45E
:1006800012EF26C011E024C000E00093A50011B1D4
:10069000187F1EC000E00093A5000A2F71D019C07A
:1006A00000E00093A5000093A4000EC000E00093BA
:1006B000A5000481039504833A2F2B2F8C0119D0B8
:1006C00008C000E00093A50004EC06BF12E000E0C3
:1006D00006D0E0EAF0E002811381E8E019C80023C7
:1006E00011F001E001C000E00093A3001093A2000C
:1006F000089505D8D801822F932F442E00E0209131
:10070000A400821758F003B127DF13B12091A40091
:1007100030E0A20FB31F11971C930BC013B130E050
:1007200021503040482F241B3040F901EF51FF4F3A
:100730001083013031F412E000E0D1DF04E806BF9D
:100740001DC00091A40010E0E82FF0E032960E17D3
:100750001F0714F013E010C0081758F0442049F4A4
:10076000913229F404E906BF11E001E006C004E873
:10077000FACF04EC06BF12E000E0B1DFE5E0C9C744
:10078000013129F412E000E0AADF04EA06C00132D8
:1007900031F412E000E0A3DF04E806BF089501335E
:1007A000C1F3013419F418EB00E099DF089523B385
:1007B0002370F801248325813481231719F42181C2
:1007C000239501C020E021832481258321812230CB
:1007D00008F442C020E02183228123832381222345
:1007E00019F02481228306C02381222319F4248155
:1007F0002330B9F32281233041F42381223029F4BC
:1008000026812395268320E017C02281233059F4C6
:100810002381213041F42681222329F026812A9543
:10082000268321E009C02281233029F42381222359
:1008300011F422E001C023E020832681273010F04C
:1008400026E026832681233010F423E026830681C8
:1008500040E050E0F1D6089523E020830895F801A8
:1008600003B3028302811381011719F401810395F7
:1008700005C002811381011711F000E0018302819C
:1008800003830181053068F10091DF00013049F1F7
:100890000091DF000F3029F100E00183222321F0D5
:1008A0000091DF000E3029F4028102FF02C000E057
:1008B00006C0028100721481011719F403E000835D
:1008C0000895028100731581011711F401E0F7CF3B
:1008D000028108731681011711F402E0F0CF04E0E1
:1008E0000083089520B3F8012283238132812317E6
:1008F00059F42091DF00273021F02091DF002F30C4
:1009000019F42181239501C020E0218322812383D2
:100910002181253068F02091DF00273049F420E064
:10092000218322812083258136812783308701D04E
:100930000895E6D6D8010C91EEE4F0E097C601E008
:1009400010E0FD01058316830FE2D8C002E010E03D
:10095000FD010583168300E3D1C003E010E0FD0133
:100960000583168301E3CAC004E010E0FD0105839E
:10097000168302E3C3C005E010E0FD010583168382
:1009800003E3BCC006E010E0FD010583168304E329
:10099000B5C007E010E0FD010583168305E3AEC096
:1009A00008E010E0FD010583168306E3A7C009E017
:1009B00010E0FD010583168307E3A0C00AE010E004
:1009C000FD010583168308E399C00BE010E0FD01EB
:1009D0000583168302E492C00CE010E0FD0105835C
:1009E000168303E48BC00DE010E0FD010583168340
:1009F00007E084C00EE010E0FD010583168308E0E7
:100A00007DC00FE010E0FD010583168309E076C08C
:100A100000E110E0FD01058316830AE06FC001E1EB
:100A200010E0FD01058316830BE068C002E110E0D1
:100A3000FD01058316830CE061C003E110E0FD01B8
:100A4000058316830DE05AC004E110E0FD01058323
:100A500016830EE053C005E110E0FD010583168307
:100A60000FE04CC006E110E0FD010583168300E1B4
:100A700045C007E110E0FD010583168301E13EC09A
:100A800008E110E0FD010583168302E137C009E1AA
:100A900010E0FD010583168303E130C00AE110E098
:100AA000FD010583168304E129C00BE110E0FD017F
:100AB0000583168305E122C00CE110E0FD010583EA
:100AC000168306E11BC00DE110E0FD0105831683CE
:100AD00007E114C00EE110E0FD010583168308E173
:100AE0000DC00FE110E0FD010583168309E106C08A
:100AF0000CE010E0FD010583168307E4048300E0A9
:100B0000E4E008C6FDD5F801DB010C910058B1F016
:100B10000A9559F00A95A1F00250A1F00450A1F0F5
:100B20000850A1F00051F9F028C0442321F00091B1
:100B3000DF000E3019F400E0008326C004E0FCCF93
:100B400003E0FACF01E0F8CF02E0F6CF04E0008343
:100B500001E010E0F90105831683858196810197F4
:100B60008783908711C004E0008300E0F9010583CA
:100B70000683858196810196F3CF04E00083F90115
:100B80000781108505831683E4E0C4C5B9D5D80173
:100B9000F901118100E02281020FE6EBF0E06AC565
:100BA00007E0FD010483B3C008E0FBCF09E0F9CF03
:100BB0000AE0F7CF0BE0F5CF0CE0F3CF0DE0F1CF7B
:100BC0000EE0EFCF0FE0EDCF00E1EBCF01E1E9CF99
:100BD00002E1E7CF03E1E5CF04E1E3CF05E1E1CFB7
:100BE00006E1DFCF07E1DDCF08E1DBCF09E1D9CFB7
:100BF0000AE1D7CF0BE1D5CF0CE1D3CF0DE1D1CFB7
:100C00000EE1CFCF0FE1CDCF00E2CBCF01E2C9CFD4
:100C100002E2C7CF03E2C5CF04E2C3CF05E2C1CFF2
:100C200006E2BFCF07E2BDCF08E2BBCF09E2B9CFF2
:100C30000AE2B7CF0BE2B5CF0CE2B3CF0DE2B1CFF2
:100C40000EE2AFCF0FE2ADCF00E3ABCF01E3A9CF10
:100C500002E3A7CF03E3A5CF04E3A3CF05E3A1CF2E
:100C600006E39FCF07E39DCF08E39BCF09E399CF2E
:100C70000AE397CF0BE395CF0CE393CF0DE391CF2E
:100C80000EE38FCF0FE38DCF00E48BCF01E489CF4C
:100C900002E487CF01E585CF02E583CF03E581CF6D
:100CA00004E57FCF05E57DCF06E57BCF07E579CF6E
:100CB00008E577CF09E575CF03E473CF04E471CF7E
:100CC00005E46FCF06E46DCF07E46BCF08E469CF8E
:100CD00009E467CF0AE465CF0BE463CF0CE461CF8E
:100CE0000DE45FCF0EE45DCF0AE55BCF0BE559CF96
:100CF0000CE557CF0DE555CF0EE553CF0FE551CF9E
:100D000000E64FCFFD010581168107831087E4E0DF
:100D100001C58A93F8012181203250F020E021831F
:100D200082818872282F06D043E050E0082F84D4B7
:100D300089910895222339F420E0F801248320E2E8
:100D4000258320E308C0283041F420E0F801248303
:100D500020E2258328E326830895203239F420E217
:100D6000F801248320E0258320E1F5CF283221F704
:100D700020E2F801248320E0258328E1ECCF59D23A
:100D8000A8950091DE00002329F1E6EAF0E000A139
:100D900011A11A930A9370E060E050E041E031E362
:100DA00024E00DEB10E0EEDBE6EAF0E002A313A393
:100DB0000091C900002371F06DEB70E04091D90003
:100DC00026EA30E00FEA10E09DDE2DEB30E006EA87
:100DD00010E0DCDE0091D800002399F601E00093DA
:100DE000D80003E212E01A930A936FE172E047EF32
:100DF00050E02091DC0006EC10E0A6DA7AD306EB96
:100E000010E0D5DC07D30091DE00002341F42091EF
:100E1000D9000FEA10E023DD06EA10E063DDE6EA20
:100E2000F0E000A111A1012B29F40091DF0006D010
:100E30000093DF0002E00093D800A2CF8A93ECED8C
:100E4000F1E014C48BE0E3EEF0E0008D118D228D13
:100E5000338D201B310BE6EAF0E020A331A3E4C17F
:100E60008EE000E0E6EAF0E000A301A332D3DEC1A9
:100E70000091AF00002339F48EE000E0E6EAF0E0F4
:100E800000A301A3D3C18DE0F8CF8FE0F6CF26EA0F
:100E900030E00FEA10E091D30093DD000091B00044
:100EA000033020F40091A7000330C0F00091DD0072
:100EB0000D30A0F480E014E0019FE3EEF0E0E00DDF
:100EC000F11D008D118D228D338D201B310BE6EA33
:100ED000F0E020A331A300AB11ABC8CF0091B60066
:100EE000023041F48DE002E310E0E6EAF0E000A316
:100EF00011A3BCCF8FE0B5CF0FEA10E00ADFC3CF5C
:100F00000091AF000023B1F482E0E3EEF0E0028153
:100F1000138120813181021B130BE6EAF0E000A36C
:100F200011A3E3EEF0E000811181E6EAF0E004A312
:100F300015A37CC11091B800123039F42091D9006A
:100F40003091DE00232B09F4A0CF113071F4109101
:100F5000D9002091DE00122B41F481E00EE310E075
:100F6000E6EAF0E000A311A361C11091B6001230CF
:100F700011F480E182CF033059F400E010E0E6EA9A
:100F8000F0E0028F038F048F058F89E004E0EACF41
:100F9000013099F4E6EAF0E0228D338D233612E039
:100FA000310758F4028D138D0F5F1F4F028F138F7F
:100FB00000E0048F058F8DE063CF0130D9F4E6EABD
:100FC000F0E0228D338D233612E0310798F000E0F7
:100FD000028F038F83E0E3EEF0E00485158526851C
:100FE0003785201B310BE6EAF0E020A331A300A7F0
:100FF00011A71CC1023091F4E6EAF0E0248D358D92
:10100000233612E0310750F4048D158D0F5F1F4F0A
:10101000048F158F00E0028F038FCDCF0230D9F4FB
:10102000E6EAF0E0048D158D033622E0120798F011
:1010300000E0048F058F84E0E3EEF0E00085118589
:1010400022853385201B310BE6EAF0E020A331A393
:1010500002A713A7EBC000E0E6EAF0E0028F038FDF
:10106000A8CF0091AF00013059F4E6EAF0E0028D1C
:10107000138D0F5F1F4F028F138F8DE000E000CFA5
:10108000023079F4E6EAF0E0048D158D0F5F1F4F12
:10109000048F158FF2CF0091AF00023099F3013029
:1010A00021F30091AF00033009F0EDCE89E004E0B8
:1010B00056CF0091B600023009F45BCF0091AF002B
:1010C0000330A1F38AE001E00093DA0000E247CFA9
:1010D0000091DA00002331F000E00093DA0087E0AD
:1010E00008E03DCF8DE0BDCEE6EAF0E00581168157
:1010F000278130852017310780F485E0E3EEF0E0AA
:101100000089118922893389201B310BE6EAF0E03E
:1011100020A331A304A715A789C00217130780F4E1
:1011200086E0E3EEF0E00481158126813781201B03
:10113000310BE6EAF0E020A331A306A717A776C09B
:101140008AE001E712E00CCF88E00091AA0014E0E9
:10115000019FE3EEF0E0E00DF11D0281138120819B
:101160003181021B130BE6EAF0E000A311A300910A
:10117000AA0014E0019FF001ED51FF4F00811181A1
:10118000E6EAF0E000AB11AB51C00091B6000023DD
:1011900051F4E6EAF0E006A9039506AB06890A9544
:1011A000068B80E16BCF013041F4E6EAF0E006A95E
:1011B0000A9506AB06890395F3CF023009F492CF66
:1011C0008CE05BCE0091BC0040E050E035D28CE07A
:1011D00002E010E0E6EAF0E000A311A30091DC00D9
:1011E000043010F003E003C0023018F401E0009373
:1011F000DC000091DC0042E050E01ED20091DC00F7
:10120000013029F4E3EEF0E0048915890BC00230C7
:1012100019F4EFE1F2E004C00330A1F7E3E2F2E0F9
:1012200000811181E6EAF0E006A317A3082F899157
:10123000089568D2EFD00093DE0004E009BF7894EF
:1012400002E80FBD09E10EBD00E007BD00EF06BDDD
:1012500000E00BBD0ABD09E101BD01BD00E50DB90E
:1012600001E00EB90091DE00002321F00FEF01BB79
:101270000CEF02C000E001BB04BB0FE207BBE9D0EA
:101280006BD004E010E041D8112311F40130B9F41F
:1012900003EE10E0D9D7902F81E00BC0082FE7D7DD
:1012A000003022E0120721F4082FFDD7082F14D8B0
:1012B0008395981798F700E044E050E0BDD100E036
:1012C00010E023D8212F1093BC00273010F40130F8
:1012D00019F403E00093BC0002E010E016D8212FBF
:1012E0001093DC00243020F4222311F0013019F493
:1012F00001E00093DC000091DC00013029F4E3EE12
:10130000F0E0048915890BC0023019F4EFE1F2E036
:1013100004C0033041F4E3E2F2E000811181E6EA27
:10132000F0E006A317A303E010E0EFD7002349F491
:101330002091DE00222329F4212F0FEA10E0FADCAD
:1013400009C000E00093B30000E20093B40000E3A2
:101350000093B500E2E0E0C100E00093D800009304
:10136000D9000093DA0001E00093C90000E0009387
:10137000DB0010E0E6EAF0E0028F038F048F058FB8
:10138000068F078F05830683078300870FE9009385
:10139000A6001093A9000FEF0093A8001093A700D8
:1013A0001093AA001093B30000E20093B40000E38E
:1013B0000093B5001093B00004E00093AF001093C9
:1013C000B2000FEF0093B10003E00093B60000936A
:1013D000BB001093BA000093B8000093B9001093BB
:1013E000B7001093BD001093BE001093BF0002E63B
:1013F00012E000A311A300E00093BC0001E0009301
:10140000DC00E3EEF0E004891589E6EAF0E006A3EB
:1014100017A30895BE98C69A06B30074059505955E
:10142000E6EAF0E012AD139512AF1091E00019302A
:1014300050F0053010F400E001C001E00093DE0040
:1014400000E00093E000002311F400E0089501E0C3
:10145000089556D101E063D802ED5CD800E05AD877
:1014600000E058D80CE256D880E003C000E052D823
:1014700083958430D8F380E026C004E0809FA3EEFB
:10148000B0E0A00DB11D00E045D820E02D930C93F5
:10149000119700E03FD810E02D913C91200F311FB3
:1014A0003C932E9300E036D820E0FD012283038395
:1014B00000E030D810E0FD0122813381200F311F80
:1014C0002283338383958A35C0F200E028D8E4E094
:1014D00021C118D180E090E006C000E0FC01E55B8E
:1014E000FD4F00830196803102E09007B0F3E2E007
:1014F00013C1E6EAF0E000A111A1012B39F000A12F
:1015000011A10150104000A311A3089501E0009320
:10151000D9000895FA93EA930A925A934A933A9318
:101520002A931A930A933FB700E00BBDE6EAF0E076
:10153000068D178DF801E55BFD4F008110E046E058
:101540002091BC00421B83D00ABDE6EAF0E0068D84
:10155000178D0F5F1F4F068F178F068D178D003168
:1015600022E0120728F000E0068F078F0093DB00CF
:10157000068D178D0F3F21E01207A0F00091DB00D0
:10158000002381F42093DB000091D800023039F071
:10159000013029F40091DF0041E050E04DD000E03F
:1015A0000093D8003FBF0991199129913991499130
:1015B00059910990E991F9911895F901328120E04A
:1015C000F80102810C73200F8901E4E0F2E052C0BF
:1015D00001E0089502E0089503E0089504E008950D
:1015E00005E0089506E0089507E0089508E00895ED
:1015F00009E008950AE008950BE008950CE00895CD
:101600000FE00895BAC00FE90DBF00E00EBFC0E8BB
:10161000D0E089D0002309F096D0B1DB11D0F2CF11
:10162000E199FECF08954F5F5F4F4EBB5FBBF894CB
:10163000E29AE19A0FBE08950FB6F2DF0DBBF5CF27
:10164000E1CF4A951AF016950795FBCF08954A9574
:101650001AF015950795FBCF0895759165915591F1
:101660004591159011FA259035900895F9DF041BE6
:1016700010E003C0F4DF041B150B20E030E005C0D0
:10168000ECDF041B150B260B370BB8F010FC17C052
:1016900045910590E00FF11F0417100540E0240765
:1016A000340758F436F404910024F101E01BF009EA
:1016B0000994E00FF11F25903590F101099411F480
:1016C000D6F7F1CF31960EF0319650E060E070E041
:1016D00045914B3F48F089F34F3F29F04E3F11F0C1
:1016E0007591659155914591041B150B260B370B90
:1016F00039F318F3E7CF8A927A926A925A924A9211
:10170000BA93AA939A938A93089588847F806E806F
:101710005D804C80BB81AA8199818881F0E0EC0FCB
:10172000FD1FEF01089501E0089520E006D0E9F7DC
:101730000895259102D0E9F708952D9301501040A6
:10174000202F212B08958CE392E0FC010591149148
:10175000FC013296A591B491FC0134962591349107
:10176000422F432B19F0F901E4DF01C0DEDF0696BA
:1017700012E08834910748F30895FFCF000001007C
:101780000100000000000000000000000000000058
:101790000000000000000000000000000000000049
:1017A0000000000000000000000000000000000039
:0D17B00000000000000000000000000D001F
:00000001FF
:00000001FF
