:10000000BFCA18951895189598CA189518951895F7
:1000100044CA189518951895189518951895189517
:1000200018951895189500017B096F09086B09044C
:1000300077090475091071090467090469092863BF
:10004000090C7909046509205F09085F091473091F
:10005000446D09046109FB004F00A00052176A03B8
:10006000EF00000039DB80E090E0A0E0B0E011E0BC
:1000700016C0202F30E0F901E95BFD4F4381F90103
:10008000E056FF4F2081421709F011E00395083038
:1000900080F3112321F08F5F9F4FAF4FBF4F11238C
:1000A00069F0A89547E452E08C019D01A1D100239D
:1000B00011F400E02EC010E000E0E9CF00915402FE
:1000C00010E0E9EAF0E00487158700915502800FFF
:1000D000911F30915E0220E000915D02200F220FFF
:1000E000331F820F931F868797871091590200E074
:1000F00020915802020F45E06BDA01501E4F012F8C
:1001000010E00695800F911F8083918312831383E3
:1001100001E0E4E0EACA50E012C0052F10E043E03D
:1001200057DAEFEEF0E0E00FF11F00E0008301830B
:1001300002830383048305830683078353955B321D
:1001400060F30895C5DA81E0E9EAF0E0A685B785B5
:100150003D01E1DF47E452E08D0120E030E048D18D
:1001600090C03AE0239F2181402C420E20EF420EA6
:10017000878D982F80E0468D840FA92F982F80E0DF
:10018000458D60E0840F70E0B0E0A6959795879567
:10019000E9EAF0E080879187A2876387F801438DC1
:1001A000542F40E0028D400FE9EAF0E004835583CC
:1001B000668367830BE2401608F048C04250504007
:1001C000604070400485158520E030E013DA4081FE
:1001D00051816281738108011901040E151E261ECA
:1001E000371E01E0000E1B1E2B1E3B1E042D10E0CF
:1001F00043E0EED9EFEEF0E0E00FF11F0082118254
:1002000022823382080E191E2A1E3B1E0BEF000E9F
:10021000141E241E341E0482158226823782008119
:10022000118122813381001611062206330640F423
:10023000B083B183B283B383B483B583B683B7830A
:100240000091BB00041510F44092BB0081E0E9EA84
:10025000F0E000891189005E1F4F008B118B00892F
:100260001189003022E0120760F0680E7B1E47E41F
:1002700052E0830120E030E0BBD0E9EAF0E0B08B4F
:10028000B18B882399F1A895E9EAF0E020893189BA
:1002900007E412E0020F131FF80120812A3318F43B
:1002A000203308F05ECF222311F480E0EACFE9EAA0
:1002B000F0E000891189005E1F4F008B118B0089CF
:1002C0001189003022E0120778F001E0600E00E0B2
:1002D000701E47E452E0830120E030E089D000E066
:1002E000E9EAF0E0008B018B81E0CBCF0091BB000D
:1002F000E8E0F7C9F3D9C29880E090E004C0A8957F
:100300000FEF37D90196803500E09007C4F340E045
:1003100050E060E070E024D03DD0013019F097D07B
:1003200000E01CC08FEF9FEF01C0A89540E050E0B7
:1003300060E070E007E314D02DD040E050E060E0D2
:1003400070E009E20DD026D0002321F00197082F9C
:10035000092B59F7A895892B19F301E0E2E0C7C9E9
:10036000BAD9402ECA01DB01C2980FEF02D900E4CE
:10037000402A042DFED89D01032FFBD89D01022F9A
:10038000F8D88C01012FF5D8082FF3D805E9F1D85A
:10039000E5E0AAC9A1D98FEF9FEFA0E0B0E00FEF91
:1003A00003C0A8950FEFE5D80F3F49F48150904066
:1003B000A040B040182F192B1A2B1B2B91F7E4E00B
:1003C00094C98AD98FEF9FEFA0E0B0E00FEF03C090
:1003D000A8950FEFCED80E3F49F081509040A04035
:1003E000B040182F192B1A2B1B2B91F7E4E07DC975
:1003F00073D9CA01322F212F102F00E0110F221FB5
:10040000331FA801B90101E1ABDFC4DF002319F0FC
:100410001ED000E01AC00FEFACD8D3DF0E3FC1F7FB
:10042000A0E0B0E008C0A8950FEFA3D8FC01EA0F48
:10043000FB1F00831196A03002E0B007A0F30FEF7E
:1004400098D80FEF96D803D001E0E4E04EC98A9324
:1004500080E004C0A8950FEF8CD883958F3FD1F72B
:10046000C29A899108953AD9C801C29802ED81D8FB
:100470008C0146E0B3D87DD8082F000F000F79D843
:1004800000E077D800E075D800E073D800E071D8BC
:1004900000E06FD880E090E007C000E06AD8FC017F
:1004A000E95BFD4F00830196803102E09007A8F3DD
:1004B000C29AE2E01CC9013029F550E012C0052FB4
:1004C00010E043E085D8EFEEF0E0E00FF11F00E030
:1004D00000830183028303830483058306830783E8
:1004E00053955B3260F308EB1BE020E0EFE0F2E0B5
:1004F00000831183228323830EEFE3E1F2E0008384
:1005000011832FC204E318E020E0EFEEF0E0008357
:1005100011832283238306E604831583268327839E
:10052000208721872287238706E50487258726875A
:10053000278704E5008B218B228B238B00EA048B19
:10054000258B268B278B008F218F228F238F04E012
:1005500011E0048F158F268F278F05E000A311A3CC
:1005600022A323A304E504A315A326A327A306E53A
:1005700000A711A722A723A704EA04A715A726A767
:1005800027A705EA00AB11AB22AB23AB04EF04AB0A
:1005900015AB26AB27AB05EF00AF11AF22AF23AFF2
:1005A0000AE312E0EBE2F1E000831183228323836C
:1005B0000BE3EFE2F1E0008311832283238300E861
:1005C000E3E3F1E0008311832283238301E8E7E37F
:1005D000F1E0008311832283238300EDEBE3F1E05C
:1005E0000083118322832383EFE3F1E000831183EF
:1005F0002283238309E213E0E3E4F1E00083118323
:10060000228323830AE2E7E4F1E00083118322835B
:10061000238304E8EBE4F1E0008311832283238346
:1006200005E8EFE4F1E0008311832283238308EEE1
:10063000E3E5F1E0008311832283238309EEE7E5FC
:10064000F1E0008311832283238302E414E0EBE5CD
:10065000F1E0008311832283238303E4EFE5F1E0DB
:10066000008311832283238306EAE3E6F1E000831B
:1006700011832283238307EAE7E6F1E000831183F5
:100680002283238315E0EBE6F1E0208311832283AC
:10069000238302E0EFE6F1E00083118322832383CA
:1006A00004E6E3E7F1E0008311832283238305E678
:1006B000E7E7F1E0008311832283238308ECEBE773
:1006C000F1E00083118322832383EFE7F1E00083CD
:1006D0001183228323830CE216E0E3E8F1E0008338
:1006E0001183228323830DE2E7E8F1E00083118385
:1006F000228323830BE7EBE8F1E00083118322835D
:1007000023830CE7EFE8F1E0008311832283238346
:100710000CECE3E9F1E00083118322832383E7E912
:10072000F1E000831183228323830CE117E0EBE9DE
:10073000F1E00083118322832383EFE9F1E000835A
:1007400011832283238302E6E3EAF1E0008311832D
:10075000228323830DE6E7EAF1E0008311832283FD
:10076000238302EBEBEAF1E00083118322832383EE
:1007700003EBEFEAF1E0008311832283238302E09D
:1007800018E0E3EBF1E00083118322832383E7EB9E
:10079000F1E02083218322832383EBEBF1E02083AC
:1007A000218322832383EFEBF1E0208321832283C3
:1007B0002383E3ECF1E02083218322832383E7EC8E
:1007C000F1E02083218322832383EBECF1E020837B
:1007D000218322832383EFECF1E020832183228392
:1007E0002383E3EDF1E0208321832283238303E04D
:1007F000E7EDF1E0008311832283238304E3EBED33
:10080000F1E00083118322832383EFEDF1E0208365
:10081000218322832383E3EEF1E02083218322835B
:10082000238307E6E7EEF1E000831183228323832D
:1008300004E8EBEEF1E00083118322832383EFEEE3
:10084000F1E02083218322832383E3EFF1E02083FF
:1008500021832283238303EF19E0E7EFF1E0008394
:1008600011832283238308EB1BE0EBEFF1E000838D
:1008700011832283238305E818E0EFEFF1E0008382
:100880001183228323830EE219E0E3E0F2E0008388
:10089000118322832383E7E0F2E000831183228324
:1008A000238302EFEBE0F2E00083118322832383B2
:1008B00008EB1BE0EFE0F2E0008311832283238347
:1008C0000EEFE3E1F2E00083118322832383E7E16B
:1008D000F2E02083218322832383EBE1F2E0208373
:1008E0002183228323830CE11CE0EFE1F2E000830B
:1008F0001183228323830AE91FE1E3E2F2E000830C
:10090000118322832383E7E2F2E020832183228381
:100910002383EBE2F2E02083218322832383EFE22F
:10092000F2E02083218322832383E3E3F2E0208328
:10093000218322832383E7E3F2E020832183228340
:100940002383EBE3F2E02083218322832383EFE3FD
:10095000F2E02083218322832383E3E4F2E02083F7
:100960002183228323830895B6D608EE13E0ECEBAF
:10097000F0E0008B118B0FE101BD01BD86E090E03E
:10098000A0E09093D8001FD32BD406C0ECEBF0E08E
:1009900001A9039501ABA895ADDC1091ED000023F2
:1009A00011F4173098F3173020F401E00093EB00B6
:1009B00002C09093EB000091EB00013009F067C09A
:1009C00004EA11E0ECEBF0E0028F138F01C0A89570
:1009D00091DC0023E1F340E052E060E070E000E1F0
:1009E000BFDCD8DC34DD01C0A8953CDB0023E1F39B
:1009F000A9DB0093E2002BDD40E150E0D8D50A30BE
:100A000031F540E250E0D3D50093E1000091E100E0
:100A1000043021F41091E2001A3290F0033021F4F6
:100A20001091E200193260F0023021F41091E200DE
:100A3000183230F00130A9F40091E200073288F456
:100A400000E00093E10040E250E0BDD50AC00AE0BA
:100A500040E150E0B8D500E040E250E0B4D59093DA
:100A6000E10000E04AD4ECEBF0E00481158126813E
:100A70003781048715872687378700831183228370
:100A8000338301E00093DE000093E00019C004EF1F
:100A900011E0ECEBF0E0028F138F0091DC000BDD36
:100AA00000E02BD4ECEBF0E0048115812681378146
:100AB0000487158726873787008311832283338332
:100AC00045E450E074D50A3069F445E350E06FD551
:100AD0000093EE000091EE00053098F004E00093E2
:100AE000EE000FC00AE045E450E06DD504E045E3B8
:100AF00050E069D5F4CF01E00093E00002E00093FC
:100B0000D8000091EB00013019F5992309F101E0BB
:100B10000093E000EFDB40E052E060E070E000E1D5
:100B20001FDC38DC94DC0EC0E5DB40E052E060E026
:100B300070E000E115DC2EDC8ADCA8950AE048E1D3
:100B400050E041D58FDA002379F300E00093E00014
:100B50000091DF00002309F4BCC10091DE000130E8
:100B600009F075C000E00093DE00ECEBF0E00081DE
:100B70001181228133810F5F1F4F2F4F3F4F008321
:100B8000118322833383843061F40485158526859F
:100B900037850F5F1F4F2F4F3F4F048715872687DD
:100BA0003787008511852285338540815181628197
:100BB0007381041715072607370738F58430E9F4E1
:100BC000EA2FF0E0BA960091E20010E0E017F1079A
:100BD00014F4A39501C0A0E00A2F8FD3ECEBF0E052
:100BE00004811581268137810487158726873787F9
:100BF00000831183228333832AC000E0008F018F9A
:100C000001E00093E000C29A22C00091EB000130A5
:100C1000C9F447E452E00081118122813381E8DB8D
:100C2000002311F090E013C065DB002349F040E0A1
:100C300052E060E070E000E193DBACDB08DCF2CF77
:100C400091E005C000811181228133810CDC00918B
:100C5000D800002309F055CFF6D201E00093D80068
:100C6000A895ECEBF0E000891189012B09F046CF43
:100C700064D1002309F442CF89D1002309F43ECF87
:100C8000863059F0873049F0ECEBF0E0008D118DA3
:100C9000012B19F40091EC0027D1B091E500B3705D
:100CA000B093EC0000E00093E7000093EA00482EC8
:100CB000042DA9D1802FB093DA00841509F042C029
:100CC0000091EB00013009F019CF873009F016CF01
:100CD0000091E2000A3210F004E001C00652102F29
:100CE000B23019F0B13009F009CFB23049F40091B7
:100CF000E100011728F4ECEBF0E005A103950AC030
:100D0000B13049F40091E100002329F0ECEBF0E070
:100D100005A10A9505A30091E10040E250E053D4FB
:100D20000A2FEBD2ECEBF0E00481158126813781AC
:100D300004871587268737870083118322833383AF
:100D400000E0DACE0050A9F00A9509F447C00A95F0
:100D500081F10A9509F460C00A9509F451C00A9519
:100D600009F46CC0025009F49BC00A9509F49FC0B5
:100D7000C2CE00E00093E000E7EFF1E000811181D6
:100D800022813381ECEBF0E00483158326833783E3
:100D9000EBEFF1E04081518162817381ECEBF0E097
:100DA000408751876287738700831183228333834F
:100DB000A5CE00E00093E00001E00093D900EFEF42
:100DC000F1E00081118122813381ECEBF0E00483BA
:100DD000158326833783E3E0F2E0DCCF00E0009365
:100DE000E000E7E0F2E00081118122813381ECEB49
:100DF000F0E00483158326833783EBE0F2E0CACF6B
:100E000000E00093E0000A2F78D2ECEBF0E00485DC
:100E1000158526853785C8CF00E00093E000EFE018
:100E2000F2E00081118122813381ECEBF0E0048358
:100E3000158326833783E3E1F2E0ACCF00E0009333
:100E4000E0001CD20E3131F0003221F0002311F00D
:100E50000F3111F411E001C010E01093DD000432F5
:100E6000C0F410E043E0B4D34FEE50E0400F511F08
:100E7000FA010081118122813381ECEBF0E00483DF
:100E8000158326833783FA014481558166817781F2
:100E900085CF86E000E0ECEBF0E0068B078B2ECEF2
:100EA000AA980091EB00002309F035CF27CE00E08F
:100EB0000093E000E7E1F2E00081118122813381BB
:100EC000ECEBF0E00483158326833783EBE1F2E05B
:100ED00061CF0091D800002309F013CE02E0009307
:100EE000D800B1D1A8950DCE1091E5001370023055
:100EF00089F0113079F40091EE000430E8F4ECEB65
:100F0000F0E002A9039502AB0091EE0045E350E04A
:100F10005AD30895013081F0123071F40091EE003F
:100F2000002351F0ECEBF0E002A90A9502AB00912E
:100F3000EE0045E350E047D3089533B33B7F217083
:100F400000E0B09901E000FB20F90091E7000430D7
:100F5000D8F40091E500031771F40091E600021740
:100F600051F4ECEBF0E003A5039503A704E010E0D7
:100F7000008B118B03C000E00093E7003093E50085
:100F80002093E60000E0089501E008950091EA0052
:100F90000430B8F40091E90010B3011751F4ECEB00
:100FA000F0E006A5039506A704E010E0008B118B86
:100FB00003C000E00093EA0000B30093E90000E002
:100FC000089501E0089500E010E0ECEBF0E0068BFE
:100FD000078B0093DD0001E00093E0001093E10037
:100FE0001093E2000093E3001093E4001093E500F7
:100FF0001093E7001093E8001093E9001093EA00C3
:101000001093EE000895ECEBF0E012A510FF05C080
:1010100000E010E0008F018F9DC011A513FF04C0F8
:101020001091DB00183220F41091D9001130F9F43E
:1010300010E01093E30020E0108F118F023041F494
:101040001091E000113021F42093DB002093D900AF
:101050001091DB00183248F4178D1395178F063066
:1010600011F414E077C0102F75C012E073C011A501
:1010700014FD17C01091DB00143198F020E0208F90
:10108000218F2093E300013031F41091E000113002
:1010900011F42093DB001091DB001431E8F211E031
:1010A00059C01091E5001871103131F0278D23954A
:1010B000278F22E02093D90021A525FD08C000E05C
:1010C000008F018F14E021E0268B078B43C0268917
:1010D0003789232B29F020E0208F218F44D0C3CFE4
:1010E00022893389232B21F000E0008F018FB9CFB3
:1010F0001031D1F7008D118D23B3237081F4012BB2
:1011000049F400E00093E30001E010E0008F118F4C
:1011100017E020C0AA9A00E0008F018F1AC00130AA
:1011200020E01207A9F30091DB00093290F400914E
:10113000D900023071F4AA9814E0078D0395078F47
:101140000091DB00083230F02093DB002093D900BF
:1011500001C016E0ECEBF0E0208D318D232B09F47B
:10116000AA9A012F0895102F202F235049F02A9575
:1011700029F02A9599F0235051F130C013E02EC088
:101180001091E0001123D1F30330C1F715E021E005
:1011900030E0ECEBF0E0268B378B20C01091E000C4
:1011A000112399F0053089F40091DD00002311F03E
:1011B00018E0EDCF14E020ED37E0ECEBF0E0228B0F
:1011C000338B20E0268B278B09C015E007C01091D8
:1011D000E000112311F0083069F318E0012F0895A1
:1011E00000B70B7F00BF00E008BB0EE207BB00E0CA
:1011F00001BB02BB04E004BB07E005BB00E50DB981
:1012000001E00EB902E80FBD09E10EBD00E00DBD21
:101210000CBD07BD0FEF06BD00E00BBD0ABD09BD4B
:1012200008BD02E003BF06E005BD05E409BF7894F0
:1012300004D1E7E5F4E000811181003022E01207DB
:1012400009F418D10895ECEBF0E000891189012B25
:1012500039F00089118901501040008B118B03C0B7
:1012600001E00093DF0002891389012B31F002892C
:10127000138901501040028B138B08958A930091BB
:10128000E9000370033041F480E014D0833171F43D
:10129000002361F400E00CC0023011F48AE0F5CFC5
:1012A000013011F483E1F1CF08E202C0800F082F72
:1012B0008991089500B30C7FE6E2F0E0C4C100E03C
:1012C000089501E0089502E0089503E0089504E020
:1012D000089505E0089506E0089507E0089508E000
:1012E000089509E008950EE108950FE108950DE1D4
:1012F000089500E2089508E20895EED1E02F0091EC
:10130000E1000023D1F4EFE1F2E0008111812281BC
:101310003381ECEBF0E00483158326833783E3E22B
:10132000F2E00081118122813381ECEBF0E0008753
:1013300011872287338706E27EC00130D1F4E7E2CD
:10134000F2E00081118122813381ECEBF0E0048333
:10135000158326833783EBE2F2E00081118122813D
:101360003381ECEBF0E0008711872287338707E2B7
:1013700062C00230D1F4EFE2F2E0008111812281FB
:101380003381ECEBF0E00483158326833783E3E3BA
:10139000F2E00081118122813381ECEBF0E00087E3
:1013A00011872287338708E246C00330D1F4E7E390
:1013B000F2E00081118122813381ECEBF0E00483C3
:1013C000158326833783EBE3F2E0008111812281CC
:1013D0003381ECEBF0E0008711872287338709E245
:1013E0002AC00091E20010E08E2F90E08A96081744
:1013F00019070CF4E0E02FE332E00E2F43E0E8D0D1
:10140000200F311FD9014D915D916D917C91A0EC20
:10141000B0E04D935D936D937C93D90114960D913B
:101420001D912D913C91A4ECB0E00D931D932D9353
:101430003C93E65D0E2FE4E058C150D190E080E08F
:101440000AC0C29807ED95D000E093D0C29A102F41
:101450001170810F93959A30A0F3853010F000E061
:1014600002C030F400E112E0E7E5F4E0008311830C
:10147000E2E03DC1C2980DE37CD00AE27AD000E8F8
:1014800078D007EA76D0C29AC29807ED72D000E011
:1014900070D007FBE6F7C29A0895FA93EA936A932D
:1014A0005A934A933A932A931A930A936FB7ECEBA1
:1014B000F0E0228D338D448955894217530719F482
:1014C00001E00093DE000091E000002359F400E009
:1014D0000BBDFA01E95BFD4F008110E04091EE0089
:1014E00083D00ABDECEBF0E0048915890F5F1F4F34
:1014F000048B158B243A01E0300751F404891589D7
:10150000003042E0140720F000E0048B058B0AC095
:10151000243F01E0300731F404891589003122E0CD
:10152000120790F76FBF099119912991399149914B
:1015300059916991E991F99118950A925A934A93B0
:101540001A930A931FB700E004BD0091D80002303F
:1015500031F0013021F40AE046E050E034D000E000
:101560000093D8001FBF0991199149915991099091
:1015700018950FB9779BFECF0FB10FB10895E8C052
:101580000FE90DBF00E00EBFC0E8D0E0B7D00023E8
:1015900009F0C4D0E9D91BD0F2CFE199FECF08956C
:1015A0004F5F5F4FFADF4EBB5FBBE09A0895FADFF3
:1015B0000DB308954F5F5F4F4EBB5FBBF894E29A47
:1015C000E19A0FBE08950FB6E8DF0DBBF5CFD7CF78
:1015D0004A951AF0000F111FFBCF08954A951AF093
:1015E00016950795FBCF08954A951AF0159507951E
:1015F000FBCF08952224349F302D259F300D169F58
:10160000300D079F300D249F202D310D159F200D8B
:10161000311D069F200D311D149F102D210D321DEF
:10162000059F100D211D321D049F002D110D221D3F
:10163000321D08957591659155914591159011FA56
:10164000259035900895F9DF041B10E003C0F4DF06
:10165000041B150B20E030E005C0ECDF041B150B6C
:10166000260B370BB8F010FC17C045910590E00F22
:10167000F11F0417100540E02407340758F436F42E
:1016800004910024F101E01BF0090994E00FF11F1F
:1016900025903590F101099411F4D6F7F1CF3196E8
:1016A0000EF0319650E060E070E045914B3F48F01D
:1016B00089F34F3F29F04E3F11F075916591559197
:1016C0004591041B150B260B370B39F318F3E7CFA5
:1016D0007A926A925A924A92BA93AA939A938A9366
:1016E00008957F806E805D804C80BB81AA81998146
:1016F0008881F0E0EC0FFD1FEF01089501E00895EF
:1017000020E006D0E9F70895259102D0E9F7089581
:101710002D9301501040202F212B089588E590E053
:10172000FC0105911491FC013296A591B491FC0144
:10173000349625913491422F432B19F0F901E4DFBF
:1017400001C0DEDF069610E08436910748F3089565
:10175000FFCF4D53444F53352E30000000000000A2
:101760000000000000000000000000000001000078
:101770000000000000000000000000000000000069
:101780000000000000000000F40100000000000064
:101790000100010000010000000000000001000045
:0117A0000048
:00000001FF
:00000001FF
