:10000000B3CA1895189518951895189518951895B8
:100010003FCA18951895189518951895189518951C
:10002000189518951895000176096A09086609045B
:100030007209047009106C09046209046409285EDD
:10004000090C7409046009205A09085A09146E0938
:10005000446809045C09FB004F00A0002E175A03F6
:10006000EF00000027DB80E090E0A0E0B0E011E0CE
:1000700016C0202F30E0F901E95BFD4F4381F90103
:10008000E056FF4F2081421709F011E00395083038
:1000900080F3112321F08F5F9F4FAF4FBF4F11238C
:1000A00069F0A89547E452E08C019D01A1D100239D
:1000B00011F400E02EC010E000E0E9CF00915402FE
:1000C00010E0E9EAF0E00487158700915502800FFF
:1000D000911F30915E0220E000915D02200F220FFF
:1000E000331F820F931F868797871091590200E074
:1000F00020915802020F45E05FDA01501E4F012F98
:1001000010E00695800F911F8083918312831383E3
:1001100001E0E4E0D8CA50E012C0052F10E043E04F
:100120004BDAEFEEF0E0E00FF11F00E00083018317
:1001300002830383048305830683078353955B321D
:1001400060F30895B3DA81E0E9EAF0E0A685B785C7
:100150003D01E1DF47E452E08D0120E030E048D18D
:1001600090C03AE0239F2181402C420E20EF420EA6
:10017000878D982F80E0468D840FA92F982F80E0DF
:10018000458D60E0840F70E0B0E0A6959795879567
:10019000E9EAF0E080879187A2876387F801438DC1
:1001A000542F40E0028D400FE9EAF0E004835583CC
:1001B000668367830BE2401608F048C04250504007
:1001C000604070400485158520E030E001DA408110
:1001D00051816281738108011901040E151E261ECA
:1001E000371E01E0000E1B1E2B1E3B1E042D10E0CF
:1001F00043E0E2D9EFEEF0E0E00FF11F0082118260
:1002000022823382080E191E2A1E3B1E0BEF000E9F
:10021000141E241E341E0482158226823782008119
:10022000118122813381001611062206330640F423
:10023000B083B183B283B383B483B583B683B7830A
:100240000091BB00041510F44092BB0081E0E9EA84
:10025000F0E000891189005E1F4F008B118B00892F
:100260001189003022E0120760F0680E7B1E47E41F
:1002700052E0830120E030E0BBD0E9EAF0E0B08B4F
:10028000B18B882399F1A895E9EAF0E020893189BA
:1002900007E412E0020F131FF80120812A3318F43B
:1002A000203308F05ECF222311F480E0EACFE9EAA0
:1002B000F0E000891189005E1F4F008B118B0089CF
:1002C0001189003022E0120778F001E0600E00E0B2
:1002D000701E47E452E0830120E030E089D000E066
:1002E000E9EAF0E0008B018B81E0CBCF0091BB000D
:1002F000E8E0E5C9E1D9C29880E090E004C0A895A3
:100300000FEF2BD90196803500E09007C4F340E051
:1003100050E060E070E024D03DD0013019F097D07B
:1003200000E01CC08FEF9FEF01C0A89540E050E0B7
:1003300060E070E007E314D02DD040E050E060E0D2
:1003400070E009E20DD026D0002321F00197082F9C
:10035000092B59F7A895892B19F301E0E2E0B5C9FB
:10036000A8D9402ECA01DB01C2980FEFF6D800E4ED
:10037000402A042DF2D89D01032FEFD89D01022FB2
:10038000ECD88C01012FE9D8082FE7D805E9E5D88A
:10039000E5E098C98FD98FEF9FEFA0E0B0E00FEFB5
:1003A00003C0A8950FEFD9D80F3F49F48150904072
:1003B000A040B040182F192B1A2B1B2B91F7E4E00B
:1003C00082C978D98FEF9FEFA0E0B0E00FEF03C0B4
:1003D000A8950FEFC2D80E3F49F081509040A04041
:1003E000B040182F192B1A2B1B2B91F7E4E06BC987
:1003F00061D9CA01322F212F102F00E0110F221FC7
:10040000331FA801B90101E1ABDFC4DF002319F0FC
:100410001ED000E01AC00FEFA0D8D3DF0E3FC1F707
:10042000A0E0B0E008C0A8950FEF97D8FC01EA0F54
:10043000FB1F00831196A03002E0B007A0F30FEF7E
:100440008CD80FEF8AD803D001E0E4E03CC98A934E
:1004500080E004C0A8950FEF80D883958F3FD1F737
:10046000C29A8991089528D9C801C29802ED75D819
:100470008C01000F012F001F70D8082F000F6DD8BE
:1004800000E06BD800E069D800E067D800E065D8EC
:1004900000E063D880E090E007C000E05ED8FC0197
:1004A000E95BFD4F00830196803002E09007A8F3DE
:1004B000C29AE2E00AC9013029F550E012C0052FC6
:1004C00010E043E079D8EFEEF0E0E00FF11F00E03C
:1004D00000830183028303830483058306830783E8
:1004E00053955B3260F306E11CE020E0EFE0F2E0C0
:1004F00000831183228323830EE5E3E1F2E000838E
:1005000011832AC206E718E020E0EFEEF0E0008356
:1005100011832283238309EA048315832683278397
:10052000208721872287238709E504872587268757
:1005300027870AE5008B218B228B238B05EA048B0E
:10054000258B268B278B008F218F228F238F0CE00A
:1005500011E0048F158F268F278F0DE000A311A3C4
:1005600022A323A30EE504A315A326A327A300A774
:1005700011A722A723A701EB04A715A726A727A742
:1005800002EB00AB11AB22AB23AB03E012E004ABF8
:1005900015AB26AB27AB00AF11AF22AF23AF0BE4F7
:1005A000EBE2F1E00083118322832383EFE2F1E0A9
:1005B000008311832283238304E9E3E3F1E00083D2
:1005C00011832283238305E9E7E3F1E000831183AC
:1005D0002283238306EEEBE3F1E000831183228381
:1005E000238307EEEFE3F1E000831183228323836B
:1005F00002E413E0E3E4F1E0008311832283238328
:1006000003E4E7E4F1E0008311832283238300EA1B
:10061000EBE4F1E00083118322832383EFE4F1E034
:10062000008311832283238307E014E0E3E5F1E0F4
:100630000083118322832383E7E5F1E000831183A4
:100640002283238304E6EBE5F1E000831183228318
:100650002383EFE5F1E000831183228323830CECF5
:10066000E3E6F1E000831183228323830DECE7E6C8
:10067000F1E0008311832283238308E215E0EBE697
:10068000F1E00083118322832383EFE6F1E000830E
:100690001183228323830FE8E3E7F1E000831183D2
:1006A00022832383E7E7F1E00083118322832383FE
:1006B00006EFEBE7F1E00083118322832383EFE76A
:1006C000F1E000831183228323830DE516E0E3E844
:1006D000F1E00083118322832383E7E8F1E00083C4
:1006E0001183228323830EEAEBE8F1E00083118378
:1006F000228323830FEAEFE8F1E000831183228352
:10070000238302E017E0E3E9F1E000831183228311
:10071000238303E0E7E9F1E000831183228323834D
:1007200005E5EBE9F1E00083118322832383EFE900
:10073000F1E000831183228323830DE9E3EAF1E0F2
:10074000008311832283238308EAE7EAF1E0008330
:100750001183228323830FEEEBEAF1E00083118300
:100760002283238300EFEFEAF1E0008311832283E9
:10077000238302E418E0E3EBF1E00083118322839A
:100780002383E7EBF1E02083218322832383EBEBB8
:10079000F1E02083218322832383EFEBF1E02083A8
:1007A000218322832383E3ECF1E0208321832283CE
:1007B0002383E7ECF1E02083218322832383EBEC86
:1007C000F1E02083218322832383EFECF1E0208377
:1007D000218322832383E3EDF1E02083218322839D
:1007E000238303E4E7EDF1E0008311832283238375
:1007F00006E7EBEDF1E00083118322832383EFED25
:10080000F1E02083218322832383E3EEF1E0208340
:100810002183228323830AEAE7EEF1E00083118338
:100820002283238309ECEBEEF1E000831183228322
:100830002383EFEEF1E02083218322832383E3EF00
:10084000F1E0208321832283238303E41AE0E7EF8E
:10085000F1E0008311832283238305E11CE0EBEFA9
:10086000F1E000831183228323830AEC18E0EFEF89
:10087000F1E0008311832283238307E719E0E3E09B
:10088000F2E0008311832283238308E7E7E0F2E0AC
:10089000008311832283238302E41AE0EBE0F2E079
:1008A000008311832283238306E11CE0EFE0F2E062
:1008B00000831183228323830EE5E3E1F2E00083CA
:1008C000118322832383E7E1F2E0208321832283C3
:1008D0002383EBE1F2E020832183228323830DE74E
:1008E000EFE1F2E000831183228323830EEF1FE107
:1008F000E3E2F2E00083118322832383E7E2F2E064
:100900002083218322832383EBE2F2E0208321836F
:1009100022832383EFE2F2E0208321832283238357
:10092000E3E3F2E02083218322832383E7E3F2E001
:100930002083218322832383EBE3F2E0208321833E
:1009400022832383EFE3F2E0208321832283238326
:10095000E3E4F2E020832183228323830895A9D650
:1009600008EE13E0ECEBF0E0008B118B0FE101BD22
:1009700001BD86E090E0A0E09093D8001FD32BD477
:1009800006C0ECEBF0E001A9039501ABA895B2DC41
:100990001091ED00002311F4173098F3173020F474
:1009A00001E00093EB0002C09093EB000091EB009C
:1009B000013009F067C004EA11E0ECEBF0E0028FCF
:1009C000138F01C0A89596DC0023E1F340E052E0CC
:1009D00060E070E000E1C4DCDDDC39DD01C0A89539
:1009E00041DB0023E1F3AEDB0093E20030DD40E1C8
:1009F00050E0D1D50A3031F540E250E0CCD500933B
:100A0000E1000091E100043021F41091E2001A327B
:100A100090F0033021F41091E200193260F00230BE
:100A200021F41091E200183230F00130A9F4009165
:100A3000E200073288F400E00093E10040E250E079
:100A4000B6D50AC00AE040E150E0B1D500E040E28E
:100A500050E0ADD59093E10000E04AD4ECEBF0E03B
:100A6000048115812681378104871587268737877A
:100A7000008311832283338301E00093DE0000931F
:100A8000E00019C004EF11E0ECEBF0E0028F138FEF
:100A90000091DC0010DD00E02BD4ECEBF0E00481F1
:100AA000158126813781048715872687378700833C
:100AB00011832283338345E450E06DD50A3069F415
:100AC00045E350E068D50093EE000091EE0005305C
:100AD00098F004E00093EE000FC00AE045E450E017
:100AE00066D504E045E350E062D5F4CF01E0009321
:100AF000E00002E00093D8000091EB00013019F50E
:100B0000992309F101E00093E000F4DB40E052E0BA
:100B100060E070E000E124DC3DDC99DC0EC0EADB43
:100B200040E052E060E070E000E11ADC33DC8FDC92
:100B3000A8950AE048E150E03AD594DA002379F329
:100B400000E00093E0000091DF00002309F4BCC145
:100B50000091DE00013009F075C000E00093DE0076
:100B6000ECEBF0E000811181228133810F5F1F4F98
:100B70002F4F3F4F0083118322833383843061F4EE
:100B800004851585268537850F5F1F4F2F4F3F4FF3
:100B90000487158726873787008511852285338549
:100BA0004081518162817381041715072607370739
:100BB00038F58430E9F4EA2FF0E0BA960091E200CB
:100BC00010E0E017F10714F4A39501C0A0E00A2F8C
:100BD0008FD3ECEBF0E00481158126813781048707
:100BE00015872687378700831183228333832AC0A2
:100BF00000E0008F018F01E00093E000C29A22C064
:100C00000091EB000130C9F447E452E0008111810A
:100C100022813381EDDB002311F090E013C06ADB09
:100C2000002349F040E052E060E070E000E198DB32
:100C3000B1DB0DDCF2CF91E005C000811181228192
:100C4000338111DC0091D800002309F055CFF6D292
:100C500001E00093D800A895ECEBF0E00089118941
:100C6000012B09F046CF64D1002309F442CF89D18A
:100C7000002309F43ECF863059F0873049F0ECEB81
:100C8000F0E0008D118D012B19F40091EC0027D1BB
:100C9000B091E500B370B093EC0000E00093E70082
:100CA0000093EA00482E042DA9D1802FB093DA00DA
:100CB000841509F042C00091EB00013009F019CF12
:100CC000873009F016CF0091E2000A3210F004E0FC
:100CD00001C00652102FB23019F0B13009F009CF1F
:100CE000B23049F40091E100011728F4ECEBF0E098
:100CF00005A103950AC0B13049F40091E100002339
:100D000029F0ECEBF0E005A10A9505A30091E100C4
:100D100040E250E04CD40A2FEBD2ECEBF0E004813F
:100D200015812681378104871587268737870083B9
:100D300011832283338300E0DACE0050A9F00A95B4
:100D400009F447C00A9581F10A9509F460C00A9533
:100D500009F451C00A9509F46CC0025009F49BC013
:100D60000A9509F49FC0C2CE00E00093E000E7EFCF
:100D7000F1E00081118122813381ECEBF0E004830A
:100D8000158326833783EBEFF1E040815181628147
:100D90007381ECEBF0E040875187628773870083B3
:100DA000118322833383A5CE00E00093E00001E0AD
:100DB0000093D900EFEFF1E00081118122813381AE
:100DC000ECEBF0E00483158326833783E3E0F2E065
:100DD000DCCF00E00093E000E7E0F2E00081118169
:100DE00022813381ECEBF0E0048315832683378383
:100DF000EBE0F2E0CACF00E00093E0000A2F78D2E7
:100E0000ECEBF0E00485158526853785C8CF00E03A
:100E10000093E000EFE0F2E0008111812281338154
:100E2000ECEBF0E00483158326833783E3E1F2E003
:100E3000ACCF00E00093E0001CD20E3131F0003264
:100E400021F0002311F00F3111F411E001C010E086
:100E50001093DD000432C0F410E043E0ADD34FEE58
:100E600050E0400F511FFA0100811181228133812E
:100E7000ECEBF0E00483158326833783FA01448189
:100E800055816681778185CF86E000E0ECEBF0E06C
:100E9000068B078B2ECEAA980091EB00002309F059
:100EA00035CF27CE00E00093E000E7E1F2E00081DB
:100EB000118122813381ECEBF0E0048315832683DA
:100EC0003783EBE1F2E061CF0091D800002309F015
:100ED00013CE02E00093D800B1D1A8950DCE1091A9
:100EE000E5001370023089F0113079F40091EE00C2
:100EF0000430E8F4ECEBF0E002A9039502AB0091BA
:100F0000EE0045E350E053D30895013081F01230F4
:100F100071F40091EE00002351F0ECEBF0E002A937
:100F20000A9502AB0091EE0045E350E040D30895EE
:100F300033B33B7F217000E0B09901E000FB20F962
:100F40000091E7000430D8F40091E500031771F434
:100F50000091E600021751F4ECEBF0E003A50395D5
:100F600003A704E010E0008B118B03C000E00093A6
:100F7000E7003093E5002093E60000E0089501E0EB
:100F800008950091EA000430B8F40091E90010B32C
:100F9000011751F4ECEBF0E006A5039506A704E079
:100FA00010E0008B118B03C000E00093EA0000B357
:100FB0000093E90000E0089501E0089500E010E0EA
:100FC000ECEBF0E0068B078B0093DD0001E0009373
:100FD000E0001093E1001093E2000093E30010930F
:100FE000E4001093E5001093E7001093E8001093DD
:100FF000E9001093EA001093EE000895ECEBF0E0A6
:1010000012A510FF05C000E010E0008F018F9DC009
:1010100011A513FD04C01091DB001E3120F41091C6
:10102000D9001130F9F410E01093E30020E0108FA4
:10103000118F023041F41091E000113021F420931F
:10104000DB002093D9001091DB001E3148F4178D8E
:101050001395178F063011F414E077C0102F75C068
:1010600012E073C011A514FD17C01091DB001F30F2
:1010700098F020E0208F218F2093E300013031F49D
:101080001091E000113011F42093DB001091DB008F
:101090001F30E8F211E059C01091E50018711831C5
:1010A00031F0278D2395278F22E02093D90021A5A9
:1010B00025FD08C000E0008F018F14E021E0268BA1
:1010C000078B43C026893789232B29F020E0208F06
:1010D000218F44D0C3CF22893389232B21F000E014
:1010E000008F018FB9CF1831D1F7008D118D23B347
:1010F000237081F4012B49F400E00093E30001E048
:1011000010E0008F118F17E020C0AA9A00E0008F36
:10111000018F1AC0013020E01207A9F30091DB0013
:101120000F3190F40091D900023071F4AA9814E0C4
:10113000078D0395078F0091DB000E3130F020936F
:10114000DB002093D90001C016E0ECEBF0E0208D2D
:10115000318D232B09F4AA9A012F0895102F202FE7
:10116000235049F02A9529F02A9599F0235051F1FE
:1011700030C013E02EC01091E0001123D1F30330F2
:10118000C1F715E021E030E0ECEBF0E0268B378B87
:1011900020C01091E000112399F0053089F40091EE
:1011A000DD00002311F018E0EDCF14E020ED37E072
:1011B000ECEBF0E0228B338B20E0268B278B09C0F1
:1011C00015E007C01091E000112311F0083069F319
:1011D00018E0012F089500B70B7F00BF00E008BBA7
:1011E0000EE207BB00E001BB02BB04E004BB07E06A
:1011F00005BB00E50DB901E00EB902E80FBD09E13C
:101200000EBD00E00DBD0CBD07BD05EF06BD00E045
:101210000BBD0ABD09BD08BD02E003BF06E005BD68
:1012200005E409BF789404D1E7E4F4E0008111817A
:10123000003022E0120709F418D10895ECEBF0E039
:1012400000891189012B39F0008911890150104062
:10125000008B118B03C001E00093DF00028913892A
:10126000012B31F00289138901501040028B138B3E
:1012700008958A930091E9000370033041F480E0FF
:1012800014D0833171F4002361F400E00CC002300B
:1012900011F48AE0F5CF013011F483E1F1CF08E2D7
:1012A00002C0800F082F8991089500B30C7FE6E2F9
:1012B000F0E0B7C100E0089501E0089502E008956C
:1012C00003E0089504E0089505E0089506E0089518
:1012D00007E0089508E0089509E008950EE10895F3
:1012E0000FE108950DE1089500E2089508E20895E0
:1012F000E1D1E02F0091E1000023D1F4EFE1F2E031
:101300000081118122813381ECEBF0E004831583AD
:1013100026833783E3E2F2E0008111812281338169
:10132000ECEBF0E0008711872287338706E27EC06E
:101330000130D1F4E7E2F2E00081118122813381B2
:10134000ECEBF0E00483158326833783EBE2F2E0D5
:101350000081118122813381ECEBF0E0008711875D
:101360002287338707E262C00230D1F4EFE2F2E075
:101370000081118122813381ECEBF0E0048315833D
:1013800026833783E3E3F2E00081118122813381F8
:10139000ECEBF0E0008711872287338708E246C034
:1013A0000330D1F4E7E3F2E000811181228133813F
:1013B000ECEBF0E00483158326833783EBE3F2E064
:1013C0000081118122813381ECEBF0E000871187ED
:1013D0002287338709E22AC00091E20010E08E2FB5
:1013E00090E08A96081719070CF4E0E02FE332E04A
:1013F0000E2F43E0E1D0200F311FD9014D915D91B7
:101400006D917C91A0ECB0E04D935D936D937C93D6
:10141000D90114960D911D912D913C91A4ECB0E051
:101420000D931D932D933C93E65D0E2FE4E04BC18D
:1014300043D190E080E00AC0C29807ED8ED000E072
:101440008CD0C29A102F1170810F93959A30A0F30F
:10145000853010F000E002C030F400E112E0E7E473
:10146000F4E000831183E2E030C1C2980DE375D04F
:101470000AE273D000E871D007EA6FD0C29AC2982E
:1014800007ED6BD000E069D007FBE6F7C29A08953C
:10149000FA93EA930A926A935A934A933A932A9355
:1014A0001A930A936FB7ECEBF0E0228D338D4489E9
:1014B00055894217530719F401E00093DE000091AB
:1014C000E000002359F400E00BBDFA01E95BFD4F99
:1014D000008110E04091EE0075D00ABDECEBF0E029
:1014E000048915890F5F1F4F048B158B243A01E087
:1014F000300751F404891589003042E0140720F0C8
:1015000000E0048B058B0AC0243F01E0300731F472
:1015100004891589003022E0120790F704891589A3
:10152000053F21E0120768F00091D800023031F049
:10153000013021F40AE046E050E039D000E00093A9
:10154000D8006FBF09911991299139914991599109
:1015500069910990E991F99118950FB9779BFECFA0
:101560000FB10FB10895E2C00FE90DBF00E00EBF4B
:10157000C0E8D0E0B1D0002309F0BED0F0D91BD034
:10158000F2CFE199FECF08954F5F5F4FFADF4EBB78
:101590005FBBE09A0895FADF0DB308954F5F5F4F88
:1015A0004EBB5FBBF894E29AE19A0FBE08950FB666
:1015B000E8DF0DBBF5CFD7CF4A951AF0000F111F0A
:1015C000FBCF08954A951AF015950795FBCF08951E
:1015D0002224349F302D259F300D169F300D079FFC
:1015E000300D249F202D310D159F200D311D069F9C
:1015F000200D311D149F102D210D321D059F100D42
:10160000211D321D049F002D110D221D321D089534
:101610007591659155914591159011FA25903590E8
:101620000895F9DF041B10E003C0F4DF041B150B61
:1016300020E030E005C0ECDF041B150B260B370B58
:10164000B8F010FC17C045910590E00FF11F04178A
:10165000100540E02407340758F436F404910024C0
:10166000F101E01BF0090994E00FF11F259035907E
:10167000F101099411F4D6F7F1CF31960EF03196BD
:1016800050E060E070E045914B3F48F089F34F3FF8
:1016900029F04E3F11F07591659155914591041BCC
:1016A000150B260B370B39F318F3E7CF7A926A92B2
:1016B0005A924A92BA93AA939A938A9308957F80F2
:1016C0006E805D804C80BB81AA8199818881F0E029
:1016D000EC0FFD1FEF01089501E0089520E006D012
:1016E000E9F70895259102D0E9F708952D93015067
:1016F0001040202F212B089588E590E0FC010591F2
:101700001491FC013296A591B491FC013496259177
:101710003491422F432B19F0F901E4DF01C0DEDFE1
:10172000069610E08436910748F30895FFCF4D5395
:10173000444F53352E300000000000000000000030
:101740000000000000000000000100000000000098
:101750000000000000000000000000000000000089
:1017600000000000F4010000000000000100010082
:0D177000000100000000000000010000006A
:00000001FF
:00000001FF
