:100000002BCB18951895189518951895189518953F
:10001000A0CA1895189518951895189518951895BB
:10002000189518951895000016021100C5011D02BB
:10003000B501E401EE01F8010202CF01C501CF01D3
:10004000CF010C02CF011D021D021D021D02010184
:100050004103FC0201220306480308480308560333
:10006000085E03086403085E03108203085E030849
:100070008903085E0308820320BF0308DF0320E52D
:100080000310F50308DF03080F04FB000101C2059C
:10009000E90401AD0501670506F704019F05015953
:1000A000050428050421050EE20401B405016E05CE
:1000B000020505019105014B0502FE0401980501A9
:1000C0005205261305018305013D050E0C05018A25
:1000D000050144051F7505012F05037C05052F0546
:1000E00014BB0542F00401A605016005021A0502D1
:1000F0003605FB000300019C0672060276061078A6
:1001000006067006017A060B7E060C7C064874060D
:10011000018006FE058D8806FE02FA5E0602620672
:10012000079806096406065C060166060B6A060C5B
:100130006806179A06316006016C06C99606FE012C
:10014000049406FFFC9206FE09DE5A06FE0AE0420F
:1001500006023E06103C06064406013A0607320631
:100160000436060C3806484006013406FE0B875656
:1001700006025206105006065806014E06074606AD
:10018000044A060C4C06485406014806FE48872ED1
:1001900006022A06102806063006012606071E0655
:1001A0000422060C2406482C06012006FE05871AA8
:1001B00006021606018206088606016E06038A06F6
:1001C000031406061C06011206079006040E06011B
:1001D0008E060B1006128406058C06311806010ADD
:1001E00006FB00005F07110061079A073C075508EE
:1001F0006F08CC08CC089808C8087D088C084C0704
:10020000EF089E075407630711097F3001290B256A
:100210000BFE4000230BFE2000210BFE10001F0BE5
:10022000FE08001D0BFE04001B0BFE0200190BFE56
:100230000100170BE0150B10130B14270B04110B07
:10024000FB004200A000D217E802E200000020E01C
:100250000DC044E0249FF801E00DF11D428153815F
:10026000453A6FE1560708F032E02395283788F3C6
:10027000032F08956FDAA02F80E090E00DC00A2FC1
:100280007AD107ED73D100E071D1B02F00E073D1C6
:100290000B2F0170900F83958A3088F3953010F002
:1002A00000E001C000E112E0E4E05FCA8A93802F21
:1002B00062D107EC5BD104E959D100E857D10AE9D2
:1002C00055D100E058D1082F56D107ED4FD100E0AD
:1002D0004DD107FB00E0E6F74ED1899108958A934E
:1002E000802F49D10DE342D10AE240D100E83ED14E
:1002F00007EA3CD100E03FD1082F3DD107ED36D1D0
:1003000000E034D107FB00E0E6F735D1899108958C
:100310001FDA280180E013D0902F02C0902F839520
:1003200082010DD0901711F08A30C0F38A3010F09E
:10033000A1E001C0A0E0B02F8D01E6E014CAE19970
:10034000FECF1FBB0EBBE09A0DB310E00895FCD9A1
:10035000802F4901912FDA012B016A847B848395D8
:100360000091E100E6E2F0E0AAC9282FE9ECF0E014
:1003700000811181B7D010E0E9ECF0E020813181FB
:10038000200F311F2083318358C0282FE5EDF0E086
:1003900000811181A7D010E0E5EDF0E0EFCF282F2C
:1003A000EBECF0E0008111819DD010E0EBECF0E08F
:1003B00020813181200F311F20833183B301A201BD
:1003C0009D01092F40D039C0282FEDECF0E00081CD
:1003D000118188D010E0EDECF0E0D0CF282FEFECC9
:1003E000F0E0008111817ED010E0EFECF0E0C6CFAC
:1003F000282FE1EDF0E00081118174D010E0E1EDF3
:10040000F0E0BCCF282FE3EDF0E0008111816AD04D
:1004100010E0E3EDF0E0B2CF282FEBECF0E000814C
:10042000118160D010E0EBECF0E0A8CF0DE000937C
:10043000E10000E0F40100830183823008F080E0F5
:10044000082FECE08CC986D9DA010130A1F4EBEC7D
:10045000F0E040815181F90102801380401551057F
:10046000C8F5EBECF0E040815181F901008011808A
:100470004015510578F10230B9F4EBECF0E0208141
:100480003181FD01428153812417350750F4EBEC93
:10049000F0E0208131814D915C911197241735074F
:1004A00018F40D911C9118C00330D1F4EBECF0E07E
:1004B00000811181FB01228133810217130748F467
:1004C000EBECF0E0008111812D913C9102171307B4
:1004D00038F4FB0100811181EBECF0E00083118323
:1004E000E4E043C937D9B801822F653A0FE17007BC
:1004F00010F421E003C022E0655A7F4146E08B0101
:10050000C9D8B02F962F990F990F813011F4A0E020
:1005100004C0823011F49395A8E0022F2CD002ED94
:1005200025D00B2F23D0092F21D00A2F1FD090E0E8
:1005300003C000E01BD093959430D8F3A0E0B0E066
:1005400008C014D0FD01EE53FD4F00838D0122D071
:100550001196A83001E0B00700E098F30CD082308B
:1005600010F001E001C000E0E4E0FFC80FB9779BA4
:10057000FECF0FB10895002319F4C29AC09A0895CE
:10058000013019F4C098C2980895023011F4C09A4D
:10059000C2980895E2ECF2E0E00FF11F1081012F04
:1005A00002950F701295107F010F0095008308953A
:1005B00001580F5710F400E0089501E00895C5D8E0
:1005C000D801C901742E562E672E09851A85442438
:1005D000550F852E52B9E0EAF0E0228133810217EF
:1005E000130729F025812395258302831383009126
:1005F000A400EEE4F0E063C84092A50001E27016AA
:1006000069F402E00093A400E0EAF0E04082418255
:1006100050B801B1062901B904EA08C101E3701616
:1006200051F4EFCF02E00093A400E0EAF0E0408252
:10063000418204E4FBC001E47016A1F301E00093E1
:10064000A400F5C0E0EAF0E005810395058306B754
:10065000102F17FD0FC00091A500043020F040922C
:10066000A500E8D0E4C002E00093A4000581039552
:100670000583DDC001B1087F0093A4004092A5006E
:10068000D6C04092A50001E00093A40004E9CEC0CA
:100690004092A50002E00093A40001E2701621F050
:1006A00001E3701611F4839483B8BFC04092A50093
:1006B00002E00093A4000C9103B9B7C04092A500DA
:1006C00002E00093A400A8CF4092A500E0EAF0E089
:1006D000008111810F5F1F4F008311830081118101
:1006E000A00FB11F008111810817190708F30081BD
:1006F00011810817190708F49AC001E00093A400BB
:100700004394C4CF4092A50002E00093A40004ECFF
:100710008DC04092A50003B14BDF0023C1F4E0EA95
:10072000F0E020813181FC0131972E173F0778F4EA
:1007300003B1E0EAF0E020813181A20FB31F0C93F6
:10074000008111810F5F1F4F00831183DDCF0023D4
:1007500079F4E0EAF0E02081318101972817390728
:1007600038F003B120813181A20FB31F0C93C5CFA4
:10077000013009F05CC002E00093A40056C0409232
:10078000A50003B115DF002349F4E0EAF0E0208181
:100790003181FC0131972E173F0750F2002341F7BA
:1007A000E0EAF0E02081318101972817390700F352
:1007B00003B120813181A20FB31F0C9332C040924C
:1007C000A50002E00093A40034CF4092A50002E00F
:1007D0000093A4000C9103B9E0EAF0E000811181DC
:1007E00001970817190708F592CF4092A500E0EA93
:1007F000F0E0008111810F5F1F4F008311830081A2
:100800001181A00FB11F0C9103B902E00093A40065
:100810000081118101970817190730F306C0409233
:10082000A50001E00093A400439404E806BF042D52
:10083000EBE096C701E00093A40004E906BF089529
:10084000F80103B30370048305811481011719F4BF
:100850000181039501C000E00183048105830181CA
:100860000330E8F100E00183028103830381002368
:1008700019F00481028306C00381002319F4048166
:100880000330B9F30281033079F40381023061F45B
:100890000681063048F4068103950683068140E010
:1008A00050E0F3D600E011C00281033081F40381EF
:1008B000013069F40681002351F006810A95068310
:1008C000068140E050E0E1D601E000830895028116
:1008D000033029F40381002311F402E0F6CF03E092
:1008E000F4CFF80103B3028302811381011719F4D5
:1008F0000181039505C002811381011711F000E009
:100900000183028103830181053068F10091E100D8
:10091000013049F10091E1000F3029F100E001833D
:10092000222321F00091E1000E3029F4028102FF20
:1009300002C000E006C0028100721481011719F4A0
:1009400003E000830895028100731581011711F4FB
:1009500001E0F7CF028108731681011711F402E05C
:10096000F0CF04E00083089520B3F80122832381AF
:100970003281231759F42091E100273021F0209192
:10098000E1002F3019F42181239501C020E021835B
:10099000228123832181253048F02091E1002730F6
:1009A00029F420E021832281208301D00895D2D62A
:1009B000D801FD0105811681078310870C91ECE8B1
:1009C000F0E07DC601E010E0FD01058316830FE233
:1009D000D8C002E010E0FD010583168300E3D1C01A
:1009E00003E010E0FD010583168301E3CAC004E0C3
:1009F00010E0FD010583168302E3C3C005E010E0AB
:100A0000FD010583168303E3BCC006E010E0FD0191
:100A10000583168304E3B5C007E010E0FD010583FC
:100A2000168305E3AEC008E010E0FD0105831683E0
:100A300006E3A7C009E010E0FD010583168307E384
:100A4000A0C00AE010E0FD010583168308E399C009
:100A50000BE010E0FD010583168302E492C00CE078
:100A600010E0FD010583168303E48BC00DE010E068
:100A7000FD010583168307E084C00EE010E0FD0150
:100A80000583168308E07DC00FE010E0FD010583BB
:100A9000168309E076C000E110E0FD0105831683AE
:100AA0000AE06FC001E110E0FD01058316830BE051
:100AB00068C002E110E0FD01058316830CE061C00F
:100AC00003E110E0FD01058316830DE05AC004E147
:100AD00010E0FD01058316830EE053C005E110E030
:100AE000FD01058316830FE04CC006E110E0FD0117
:100AF0000583168300E145C007E110E0FD01058391
:100B0000168301E13EC008E110E0FD010583168374
:100B100002E137C009E110E0FD010583168303E11E
:100B200030C00AE110E0FD010583168304E129C00D
:100B30000BE110E0FD010583168305E122C00CE105
:100B400010E0FD010583168306E11BC00DE110E0F6
:100B5000FD010583168307E114C00EE110E0FD01DD
:100B60000583168308E10DC00FE110E0FD01058348
:100B7000168309E106C00CE010E0FD010583168331
:100B800007E40483E4E0F1C5FA0131813C5F39F008
:100B90003A9589F03A9589F03A9589F008C0222370
:100BA00021F02091E1002E3011F420E001C024E07A
:100BB000F8012083089523E0FBCF21E0F9CF22E064
:100BC000F7CFC8D5D801F90101810058018301810F
:100BD000002319F401810B37A8F4FD0145815681EA
:100BE000F901018110E04017510761F00091E10027
:100BF000073041F40181FD010583168305811681CB
:100C000007831087F901128100E02381020FE4EFCE
:100C1000F0E059C507E0FD01048393C008E0FBCF75
:100C200009E0F9CF0AE0F7CF0BE0F5CF0CE0F3CF06
:100C30000DE0F1CF0EE0EFCF0FE0EDCF00E1EBCF15
:100C400001E1E9CF02E1E7CF03E1E5CF04E1E3CF42
:100C500005E1E1CF06E1DFCF07E1DDCF08E1DBCF42
:100C600009E1D9CF0AE1D7CF0BE1D5CF0CE1D3CF42
:100C70000DE1D1CF0EE1CFCF0FE1CDCF00E2CBCF51
:100C800001E2C9CF02E2C7CF03E2C5CF04E2C3CF7E
:100C900005E2C1CF06E2BFCF07E2BDCF08E2BBCF7E
:100CA00009E2B9CF0AE2B7CF0BE2B5CF0CE2B3CF7E
:100CB0000DE2B1CF0EE2AFCF0FE2ADCF00E3ABCF8D
:100CC00001E3A9CF02E3A7CF03E3A5CF04E3A3CFBA
:100CD00005E3A1CF06E39FCF07E39DCF08E39BCFBA
:100CE00009E399CF0AE397CF0BE395CF0CE393CFBA
:100CF0000DE391CF0EE38FCF0FE38DCF00E48BCFC9
:100D000001E489CF02E487CF03E485CF04E483CFF5
:100D100005E481CF06E47FCF07E47DCF08E47BCFF5
:100D200009E479CF0AE477CF0BE475CF0CE473CFF5
:100D30000DE471CF0EE46FCFFD01058116810783AD
:100D40001087E4E012C58A93F8012181203250F027
:100D500020E0218382818872282F06D043E050E072
:100D6000082F93D489910895222339F420E0F801C3
:100D7000248320E2258320E308C0283041F420E0CA
:100D8000F801248320E2258328E326830895203276
:100D900039F420E2F801248320E0258320E1F5CF17
:100DA000283221F720E2F801248320E0258328E17E
:100DB000ECCF65D2A8950091E000002309F1E6EAA6
:100DC000F0E001A112A11A930A9370E060E051E0F3
:100DD00041E324E030E00DEB10E0F1DB0093DD00B7
:100DE0000091DD00002361F04DEB50E02091DA002E
:100DF0000FEA10E0C9DE2DEB30E006EA10E0E1DE9C
:100E00000091D7000023B9F601E00093D70002E279
:100E100012E01A930A936EE172E046EF50E01091EF
:100E2000DE0027EC30E00091D80091DA0093D80082
:100E30007FD306EB10E004DD1AD30091E00000231D
:100E400041F42091DA000FEA10E04BDD06EA10E0F1
:100E50008BDDE6EAF0E001A112A1012B29F400915B
:100E6000E10006D00093E10002E00093D700A2CF9A
:100E70008A93E2EEF1E023C48BE0E2EEF0E0008D35
:100E8000118D228D338D201B310B220F331FE6EA8B
:100E9000F0E021A332A3EEC18EE000E0E6EAF0E04C
:100EA00001A302A335D3E8C10091AF00002339F4B8
:100EB0008EE000E0E6EAF0E001A302A3DDC18DE0F0
:100EC000F8CF8FE0F6CF26EA30E00FEA10E09ED3AD
:100ED0000093DF000091B000033020F40091A700E0
:100EE0000330D0F00091DF000D30B0F480E014E06A
:100EF000019FE2EEF0E0E00DF11D008D118D228DDD
:100F0000338D201B310B220F331FE6EAF0E021A3C3
:100F100032A307A710ABC6CF0091B600023041F450
:100F20008DE002E310E0E6EAF0E001A312A3BACFFD
:100F30008FE0B3CF0FEA10E006DFC1CF0091AF0022
:100F40000023C1F482E0E2EEF0E00281138120810F
:100F50003181021B130B000F111FE6EAF0E001A321
:100F600012A3E2EEF0E000811181E6EAF0E003A3D3
:100F700014A382C11091B800123039F42091DA0024
:100F80003091E000232B09F49CCF113071F41091C3
:100F9000DA002091E000122B41F481E00EE310E032
:100FA000E6EAF0E001A312A367C11091B600123087
:100FB00011F480E17ECF033059F400E010E0E6EA5E
:100FC000F0E0038F048F058F068F89E004E0EACFFD
:100FD000013099F4E6EAF0E0238D348D233612E0F7
:100FE000310758F4038D148D0F5F1F4F038F148F3B
:100FF00000E0058F068F8DE05FCF0130E9F4E6EA6F
:10100000F0E0238D348D233612E03107A8F000E0A4
:10101000038F048F83E0E2EEF0E0048515852685DA
:101020003785201B310B220F331FE6EAF0E021A3A6
:1010300032A307A310A720C1023091F4E6EAF0E042
:10104000258D368D233612E0310750F4058D168D2F
:101050000F5F1F4F058F168F00E0038F048FCBCFDC
:101060000230E9F4E6EAF0E0058D168D033622E061
:101070001207A8F000E0058F068F84E0E2EEF0E0B2
:101080000085118522853385201B310B220F331FEC
:10109000E6EAF0E021A332A301A712A7EDC000E029
:1010A000E6EAF0E0038F048FA4CF0091AF00013097
:1010B00059F4E6EAF0E0038D148D0F5F1F4F038FA4
:1010C000148F8DE000E0F8CE023079F4E6EAF0E02B
:1010D000058D168D0F5F1F4F058F168FF2CF009174
:1010E000AF00023099F3013021F30091AF000330DB
:1010F00009F0E5CE89E004E052CF0091B60002305D
:1011000009F457CF0091AF000330A1F38AE001E06A
:101110000093DB0000E243CF0091DB00002331F0BD
:1011200000E00093DB0087E008E039CF8DE0B5CE2A
:10113000E6EAF0E005811681278130852017310726
:1011400090F485E0E2EEF0E000891189228933898C
:10115000201B310B220F331FE6EAF0E021A332A35C
:1011600003A714A789C00217130790F486E0E2EEE4
:10117000F0E00481158126813781201B310B220F7D
:10118000331FE6EAF0E021A332A305A716A774C037
:101190008AE001E712E004CF88E00091AA0014E0A1
:1011A000019FE2EEF0E0E00DF11D0281138120814C
:1011B0003181021B130B000F111FE6EAF0E001A3BF
:1011C00012A30091AA0014E0019FF001EE51FF4F1D
:1011D00000811181E6EAF0E007A710AB4DC0009155
:1011E000B600002379F4E6EAF0E000AD039500AF25
:1011F00006890A95068B0091BC0040E050E045D27C
:1012000080E160CF013041F4E6EAF0E000AD0A95FC
:1012100000AF06890395EECF023009F487CF8CE04A
:1012200048CE8CE002E010E0E6EAF0E001A312A371
:101230000091DE00043018F003E00093DE0000911E
:10124000DE0042E050E021D20091DE00013029F4BE
:10125000E2EEF0E0048915890BC0023019F4EEE1EA
:10126000F2E004C00330A1F7E2E2F2E00081118174
:10127000E6EAF0E005A316A3082F899108956CD241
:10128000F6D00093E00004E009BF789402E80FBDB7
:1012900009E10EBD00E007BD0FEF06BD00E00BBD8C
:1012A0000ABD0AE101BD01BD00E50DB901E00EB9BD
:1012B0000091E000002321F00FEF01BB0CEF02C012
:1012C00000E001BB04BB0FE207BBE2D06BD004E03F
:1012D00010E01ED8112311F40130B9F402EE10E031
:1012E000B6D7902F81E00BC0082FC4D7003022E082
:1012F000120721F4082FDAD7082FF1D78395981712
:1013000098F700E044E050E0C0D100E010E000D8E1
:10131000212F1093BC00273010F4013019F403E0A2
:101320000093BC0002E010E0F3D7212F1093DE0001
:10133000243020F4222311F0013019F401E000934D
:10134000DE000091DE00013029F4E2EEF0E00489D5
:1013500015890BC0023019F4EEE1F2E004C003304D
:1013600041F4E2E2F2E000811181E6EAF0E005A357
:1013700016A303E010E0CCD7002349F42091E0004D
:10138000222329F4212F0FEA10E0EEDC09C000E04F
:101390000093B30000E20093B40000E30093B500B3
:1013A000E2E0E5C100E00093D7000093DA0000938B
:1013B000DB0001E00093DD0000E00093DC0010E0C2
:1013C000E6EAF0E0038F048F058F068F078F00A3F6
:1013D0000093D90005830683078300870FE90093F4
:1013E000A6001093A9000FEF0093A8001093A70088
:1013F0001093AA001093B30000E20093B40000E33E
:101400000093B5001093B00004E00093AF00109378
:10141000B2000FEF0093B10003E00093B600009319
:10142000BB001093BA000093B8000093B90010936A
:10143000B7001093BD001093BE001093BF0010932F
:10144000C00002E612E001A312A300E00093BC007A
:1014500001E00093DE0000E00093D800E2EEF0E04F
:1014600004891589E6EAF0E005A316A3089520E0B3
:10147000BE98C69A00E004C016B31074210F0395FD
:101480000930D0F3253010F400E0089501E008950C
:1014900061D101E070D802ED69D800E067D800E0C2
:1014A00065D80CE263D880E003C000E05FD8839584
:1014B0008430D8F380E026C004E0809FA2EEB0E044
:1014C000A00DB11D00E052D820E02D930C93119790
:1014D00000E04CD810E02D913C91200F311F3C933F
:1014E0002E9300E043D820E0FD012283038300E037
:1014F0003DD810E0FD0122813381200F311F22836E
:10150000338383958837C0F200E035D8E4E02DC1FD
:1015100023D180E090E006C000E0FC01EE53FD4FD7
:1015200000830196883001E09007B0F3E2E01FC12C
:10153000E6EAF0E001A112A1012B39F001A112A10C
:101540000150104001A312A3089501E00093DA00B6
:101550000895FA93EA930A925A934A933A932A93F4
:101560001A930A933FB700E00BBDE6EAF0E0078D5F
:1015700010A1F801EE53FD4F008110E046E02091EC
:10158000BC00421B8DD00ABDE6EAF0E003A903953A
:1015900003AB0091D900023049F400E00093D90078
:1015A000078D10A10F5F1F4F078F10A3078D10A18C
:1015B000083021E0120728F000E0078F00A3009315
:1015C000DC00078D10A1013F20E01207A0F0009180
:1015D000DC00002381F401E00093DC000091D700DF
:1015E000023039F0013029F40091E10041E050E08F
:1015F0004CD02093D7003FBF09911991299139917F
:10160000499159910990E991F9911895F90132811F
:1016100020E0F80102810C73200F8901EAE0F2E07A
:1016200052C001E0089502E0089503E0089504E047
:10163000089505E0089506E0089507E0089508E09C
:10164000089509E008950AE008950BE008950CE07C
:1016500008950FE00895BCC00FE90DBF00E00EBF74
:10166000C0E8D0E08BD0002309F098D0A2DB11D0E5
:10167000F2CFE199FECF08954F5F5F4F4EBB5FBB46
:10168000F894E29AE19A0FBE08950FB6F2DF0DBB0F
:10169000F5CFE1CF4A951AF016950795FBCF08953F
:1016A0004A951AF015950795FBCF089575916591A8
:1016B00055914591159011FA259035900895F9DFCF
:1016C000041B10E003C0F4DF041B150B20E030E026
:1016D00005C0ECDF041B150B260B370BB8F010FC14
:1016E00017C045910590E00FF11F0417100540E069
:1016F0002407340758F436F404910024F101E01B68
:10170000F0090994E00FF11F25903590F10109943B
:1017100011F4D6F7F1CF31960EF0319650E060E03B
:1017200070E045914B3F48F089F34F3F29F04E3F21
:1017300011F07591659155914591041B150B260B80
:10174000370B39F318F3E7CF9A928A927A926A921A
:101750005A924A92BA93AA939A938A930895998433
:1017600088847F806E805D804C80BB81AA81998156
:101770008881F0E0EC0FFD1FEF01089501E008956E
:1017800020E006D0E9F70895259102D0E9F7089501
:101790002D9301501040202F212B089582E492E0D8
:1017A000FC0105911491FC013296A591B491FC01C4
:1017B000349625913491422F432B19F0F901E4DF3F
:1017C00001C0DEDF069612E08E34910748F30895DB
:1017D000FFCF00000000010000000000000000003A
:1017E00000000000000000000000000000000000F9
:1017F00000000000000000000000000000000000E9
:1018000000000000000000000000000000000000D8
:041810000000000DC7
:00000001FF
:00000001FF
