:1000000091CB1895189518951895189518951895D9
:1000100006CB189518951895189518951895189554
:10002000189518951895000047021100F401450233
:10003000E40113021D0227023102FE01F401FE0158
:10004000FE013B02FE014502450245024502000158
:100050000E030C03020C03010C03030C03030C033B
:10006000020C03010C03020C03010C03010C03023C
:100070000C03070C03070C03040C03010C030B0C0B
:10008000030F0C03010C03010C03010C03040C030C
:10009000010C03310C03010C03060C03010C0301DA
:1000A0000C03010C03020C03040C03080C03100CDA
:1000B00003FB0101D405FB0401BF05017905060915
:1000C0000501B105016B05043A050433050EF4047E
:1000D00001C60501800502170501A305015D0502A2
:1000E000100501AA05016405262505019505014FA6
:1000F000050E1E05019C050156051F8705014105DA
:1001000008410514CD0542020501B805017205023A
:100110002C05018E05014805FB00030001D7068D63
:10012000060291060E8B060293060795060B9906AA
:100130000C9706488F06019B06FE02C8CD06FE02FC
:10014000C5B50603C906FE02F77906027D0607C596
:1001500006077706027F060781060B85060C8306D5
:1001600012C30605C706317B06018706FE01CDC115
:1001700006FFFCBF06FE09FE7506FE0AC05D06020C
:1001800059060E5F060257060755060B51060C531B
:1001900006104D06385B06014F06FE0B87710602FE
:1001A0006D060E7306026B060769060B65060C6783
:1001B00006106106386F06016306FE0E87A106026F
:1001C000A5060E9F0602A70607A9060BAD060CABF7
:1001D0000648A30601AF068DD5060CD106FE01F434
:1001E000CF06FE040CCB06FE32EE49060245060A97
:1001F000D306044B060243060741060B3D060C3F9F
:1002000006103906384706013B06FE05873506020B
:100210003106019D0608B30601890603B7060137BA
:1002200006022F06072D0607BD0604290601BB0698
:100230000B2B0612B10605B906313306012506FB64
:1002400000009E071100A007D9077B079408B40897
:1002500022092209EE081E09D508E4088B07450982
:10026000DD079307A20762097F30018F0B8B0BFE1E
:100270004000890BFE2000870BFE1000850BFE0856
:1002800000830BFE0400810BFE02007F0BFE0100C9
:100290007D0BE07B0B10790B148D0B04770BFB00AF
:1002A0004300A0009E18EA02E300000020E00DC019
:1002B00044E0249FF801E00DF11D4281538141305B
:1002C00060E2560708F032E02395283788F3032FC1
:1002D0000895A6DAA02F80E090E00DC00A2F7CD10F
:1002E00007ED75D100E073D1B02F00E075D10B2F71
:1002F0000170900F83958A3088F3953010F000E0FC
:1003000001C000E112E0E4E096CA8A93802F64D134
:1003100007EC5DD104E95BD100E859D10AE957D176
:1003200000E05AD1082F58D107ED51D100E04FD14C
:1003300007FB00E0E6F750D1899108958A93802F5A
:100340004BD10DE344D10AE242D100E840D107EAA3
:100350003ED100E041D1082F3FD107ED38D100E078
:1003600036D107FB00E0E6F737D18991089556DAD8
:10037000280180E013D0902F02C0902F8395820136
:100380000DD0901711F08A30C0F38A3010F0A1E040
:1003900001C0A0E0B02F8D01E6E04BCAE199FECF8D
:1003A0001FBB0EBBE09A0DB310E0089533DA802F27
:1003B0004901912FDA012B016A847B848395009196
:1003C000E100E6E2F0E0E1C9282FEAECF0E000818C
:1003D0001181B9D010E0EAECF0E020813181200FEA
:1003E000311F208331835AC0282FE6EDF0E00081D1
:1003F0001181A9D010E0E6EDF0E0EFCF282FECEC72
:10040000F0E0008111819FD010E0ECECF0E0208161
:100410003181200F311F20833183B301A2019D015F
:10042000092F42D03BC0282FEEECF0E00081118173
:100430008AD010E0EEECF0E0D0CF282FE0EDF0E035
:100440000081118180D010E0E0EDF0E0C6CF282FD0
:10045000E2EDF0E00081118176D010E0E2EDF0E015
:10046000BCCF282FE4EDF0E0008111816CD010E0CA
:10047000E4EDF0E0B2CF282FECECF0E00081118148
:1004800062D010E0ECECF0E0A8CF80E007C080E0A4
:100490000DE00093E100F40180838183823008F055
:1004A00080E0082FECE0C1C9BBD9DA010130A1F42A
:1004B000ECECF0E040815181F9010280138040159D
:1004C0005105C8F5ECECF0E040815181F901008064
:1004D00011804015510578F10230B9F4ECECF0E0F0
:1004E00020813181FD01428153812417350750F469
:1004F000ECECF0E0208131814D915C911197241753
:10050000350718F40D911C9118C00330D1F4ECECB0
:10051000F0E000811181FB01228133810217130772
:1005200048F4ECECF0E0008111812D913C91021730
:10053000130738F4FB0100811181ECECF0E000833B
:100540001183E4E078C96CD9B801822F613000E2F0
:10055000700710F421E003C022E06050704246E0D2
:100560008B01FED8B02F962F990F990F813011F47F
:10057000A0E004C0823011F49395A8E0022F2CD0A3
:1005800002ED25D00B2F23D0092F21D00A2F1FD009
:1005900090E003C000E01BD093959430D8F3A0E026
:1005A000B0E008C014D0FD01EB53FD4F00838D0176
:1005B00022D01196A83001E0B00700E098F30CD0EB
:1005C000823010F001E001C000E0E4E034C90FB96E
:1005D000779BFECF0FB10895002319F4C29AC09AF9
:1005E0000895013019F4C098C2980895023011F4AA
:1005F000C09AC2980895E5ECF2E0E00FF11F108177
:10060000012F02950F701295107F010F0095008346
:100610000895EEE4F0E0B9C800E0089501E008951F
:100620000895002311F000E0089501E00895F6D840
:10063000C801B22FA32F042F452F462E572E2E81EF
:100640003F81000F02B9E0EAF0E00081118120173C
:10065000310729F005810395058320833183B2306A
:1006600008F440E00091A200005809F474C008505A
:1006700009F47CC0085109F468C0015649F00A9594
:1006800009F444C00A9551F10D5509F45EC057C0F4
:1006900000E00093A5002B2F8C01C2DFA13111F0E7
:1006A000A13269F412E000E06FD000E00093A400F2
:1006B00040B801B1052901B904EA06BF5FC0A13302
:1006C00011F0A13441F412E000E05ED000E00093AC
:1006D000A40004E4F2CF11E001E04FC000E0009379
:1006E000A5002B2F8C019CDF1B2F9C0102E099DFC2
:1006F000002339F011E001E047D0A13229F404E9E8
:10070000DCCF12E000E040D004E8D7CF06B7102FCE
:1007100017FD0FC00091A500043068F100E00093C0
:10072000A500A13111F0A13211F412EF26C011E0A1
:1007300024C000E00093A50011B1187F1EC000E0A6
:100740000093A5000A2F71D019C000E00093A50006
:100750000093A4000EC000E00093A500048103955F
:1007600004833A2F2B2F8C0119D008C000E000938E
:10077000A50004EC06BF12E000E006D0E0EAF0E0DD
:1007800002811381E8E055C8002311F001E001C0A7
:1007900000E00093A3001093A200089540D8D80170
:1007A000822F932F442E00E02091A400821758F04E
:1007B00003B12FDF13B12091A40030E0A20FB31FCB
:1007C00011971C930BC013B130E021503040482FDB
:1007D000241B3040F901ED51FF4F1083013031F4FB
:1007E00012E000E0D1DF04E806BF1DC00091A400C4
:1007F00010E0E82FF0E032960E171F0714F013E018
:1008000010C0081758F0442049F4913229F404E943
:1008100006BF11E001E006C004E8FACF04EC06BF11
:1008200012E000E0B1DFE5E005C8013129F412E093
:1008300000E0AADF04EA06C0013231F412E000E071
:10084000A3DF04E806BF08950133C1F3013419F4AE
:1008500018EB00E099DF089523B32370F801248397
:1008600025813481231719F42181239501C020E0CB
:100870002183248125832181223008F442C020E095
:100880002183228123832381222319F0248122833F
:1008900006C02381222319F424812330B9F3228155
:1008A000233041F42381223029F4268123952683A5
:1008B00020E017C02281233059F42381213041F4F4
:1008C0002681222329F026812A95268321E009C04A
:1008D0002281233029F42381222311F422E001C054
:1008E00023E020832681273010F026E0268326810E
:1008F000233010F423E02683068140E050E02BD71C
:10090000089523E020830895F80103B30283028150
:100910001381011719F40181039505C00281138128
:10092000011711F000E0018302810383018105308A
:1009300068F10091E100013049F10091E1000F30D0
:1009400029F100E00183222321F00091E1000E3023
:1009500029F4028102FF02C000E006C00281007299
:100960001481011719F403E00083089502810073D4
:100970001581011711F401E0F7CF02810873168188
:10098000011711F402E0F0CF04E00083089520B3D2
:10099000F801228323813281231759F42091E10049
:1009A000273021F02091E1002F3019F42181239587
:1009B00001C020E02183228123832181253068F03A
:1009C0002091E100273049F420E021832281208317
:1009D000258136812783308701D0089521D7D8011A
:1009E0000C91E2EBF0E0D1C601E010E0FD010583DF
:1009F00016830FE2D8C002E010E0FD0105831683E4
:100A000000E3D1C003E010E0FD010583168301E39C
:100A1000CAC004E010E0FD010583168302E3C3C0F1
:100A200005E010E0FD010583168303E3BCC006E08A
:100A300010E0FD010583168304E3B5C007E010E074
:100A4000FD010583168305E3AEC008E010E0FD015B
:100A50000583168306E3A7C009E010E0FD010583C6
:100A6000168307E3A0C00AE010E0FD0105831683AA
:100A700008E399C00BE010E0FD010583168302E452
:100A800092C00CE010E0FD010583168303E48BC0E7
:100A90000DE010E0FD010583168307E084C00EE041
:100AA00010E0FD010583168308E07DC00FE010E033
:100AB000FD010583168309E076C000E110E0FD0129
:100AC000058316830AE06FC001E110E0FD01058394
:100AD00016830BE068C002E110E0FD010583168378
:100AE0000CE061C003E110E0FD01058316830DE019
:100AF0005AC004E110E0FD01058316830EE053C0E7
:100B000005E110E0FD01058316830FE04CC006E10E
:100B100010E0FD010583168300E145C007E110E008
:100B2000FD010583168301E13EC008E110E0FD01EF
:100B30000583168302E137C009E110E0FD0105835A
:100B4000168303E130C00AE110E0FD01058316833E
:100B500004E129C00BE110E0FD010583168305E1E6
:100B600022C00CE110E0FD010583168306E11BC0E5
:100B70000DE110E0FD010583168307E114C00EE1CD
:100B800010E0FD010583168308E10DC00FE110E0C0
:100B9000FD010583168309E106C00CE010E0FD01AC
:100BA0000583168307E4048300E0E4E044C638D6F6
:100BB000F801DB010C910058B1F00A9559F00A9543
:100BC000A1F00250A1F00450A1F00850A1F0005192
:100BD000F9F028C0442321F00091E1000E3019F40F
:100BE00000E0008326C004E0FCCF03E0FACF01E080
:100BF000F8CF02E0F6CF04E0008301E010E0F90155
:100C0000058316838581968101978783908711C01C
:100C100004E0008300E0F901058306838581968165
:100C20000196F3CF04E00083F90107811085058365
:100C30001683E4E000C6F4D5D801F901118100E083
:100C40002281020FEAE1F1E0A4C507E0FD0104837F
:100C5000B3C008E0FBCF09E0F9CF0AE0F7CF0BE023
:100C6000F5CF0CE0F3CF0DE0F1CF0EE0EFCF0FE0CA
:100C7000EDCF00E1EBCF01E1E9CF02E1E7CF03E106
:100C8000E5CF04E1E3CF05E1E1CF06E1DFCF07E106
:100C9000DDCF08E1DBCF09E1D9CF0AE1D7CF0BE106
:100CA000D5CF0CE1D3CF0DE1D1CF0EE1CFCF0FE106
:100CB000CDCF00E2CBCF01E2C9CF02E2C7CF03E242
:100CC000C5CF04E2C3CF05E2C1CF06E2BFCF07E242
:100CD000BDCF08E2BBCF09E2B9CF0AE2B7CF0BE242
:100CE000B5CF0CE2B3CF0DE2B1CF0EE2AFCF0FE242
:100CF000ADCF00E3ABCF01E3A9CF02E3A7CF03E37E
:100D0000A5CF04E3A3CF05E3A1CF06E39FCF07E37D
:100D10009DCF08E39BCF09E399CF0AE397CF0BE37D
:100D200095CF0CE393CF0DE391CF0EE38FCF0FE37D
:100D30008DCF00E48BCF01E489CF02E487CF01E5BA
:100D400085CF02E583CF03E581CF04E57FCF05E5BD
:100D50007DCF06E57BCF07E579CF08E577CF09E5BD
:100D600075CF03E473CF04E471CF05E46FCF06E4DD
:100D70006DCF07E46BCF08E469CF09E467CF0AE4DD
:100D800065CF0BE463CF0CE461CF0DE45FCF0EE4DD
:100D90005DCF0AE55BCF0BE559CF0CE557CF0DE5ED
:100DA00055CF0EE553CF0FE551CF00E64FCFFD01F4
:100DB0000581168107831087E4E03DC58A93F80119
:100DC0002181203250F020E0218382818872282FF7
:100DD00006D043E050E0082FBED489910895222325
:100DE00039F420E0F801248320E2258320E308C0C1
:100DF000283041F420E0F801248320E2258328E311
:100E000026830895203239F420E2F801248320E07B
:100E1000258320E1F5CF283221F720E2F801248351
:100E200020E0258328E1ECCF84D2A8950091E00052
:100E3000002329F1E6EAF0E000A111A11A930A9338
:100E400070E060E050E041E031E323E00DEB10E0C2
:100E5000EEDBE6EAF0E002A313A30091C900002351
:100E600071F06DEB70E04091DB0026EA30E00FEAB4
:100E700010E09DDE2DEB30E006EA10E0DCDE0091B4
:100E8000D800002399F601E00093D80005E212E0B3
:100E90001A930A9361E272E049EF50E01091DE008C
:100EA00026EC30E00091D90081DA0093D900A6D376
:100EB00006EB10E0D1DC33D30091E000002341F4D5
:100EC0002091DB000FEA10E01FDD06EA10E05FDD95
:100ED000E6EAF0E000A111A1012B29F40091E10064
:100EE00006D00093E10002E00093D8009ECF8A93E1
:100EF000E0E4F2E04AC48BE0E5EEF0E0008D118D15
:100F0000228D338D201B310B220F331FE6EAF0E0D8
:100F100020A331A309C28EE000E0E6EAF0E000A3DE
:100F200001A35CD303C20091AF00002339F48EE02B
:100F300000E0E6EAF0E000A301A3F8C18DE0F8CFFD
:100F40008FE0F6CF26EA30E00FEA10E0C5D3009339
:100F5000DF000091B000033020F40091A7000330BF
:100F6000D0F00091DF000D30B0F480E014E0019F7C
:100F7000E5EEF0E0E00DF11D008D118D228D338D39
:100F8000201B310B220F331FE6EAF0E020A331A330
:100F900000AB11ABC6CF0091B600023041F48DE03A
:100FA00002E310E0E6EAF0E000A311A3BACF8FE07D
:100FB000B3CF0FEA10E002DFC1CF0091AF000023F2
:100FC000C1F482E0E5EEF0E00281138120813181FD
:100FD000021B130B000F111FE6EAF0E000A311A3A0
:100FE000E5EEF0E000811181E6EAF0E004A315A34C
:100FF0009DC11091B800123039F42091DB0030917E
:10100000E000232B09F49CCF113071F41091DB0028
:101010002091E000122B41F481E00EE310E0E6EABB
:10102000F0E000A311A382C11091B600123011F4B8
:1010300080E17ECF033059F400E010E0E6EAF0E012
:10104000028F038F048F058F89E004E0EACF01301F
:1010500099F4E6EAF0E0228D338D233612E0310771
:1010600058F4028D138D0F5F1F4F028F138F00E016
:10107000048F058F8DE05FCF0130E9F4E6EAF0E000
:10108000228D338D233612E03107A8F000E0028F65
:10109000038F83E0E5EEF0E004851585268537852E
:1010A000201B310B220F331FE6EAF0E020A331A30F
:1010B00000A711A73BC1023091F4E6EAF0E0248DCD
:1010C000358D233612E0310750F4048D158D0F5FF6
:1010D0001F4F048F158F00E0028F038FCBCF02309C
:1010E000E9F4E6EAF0E0048D158D033622E01207FC
:1010F000A8F000E0048F058F84E0E5EEF0E00085C5
:10110000118522853385201B310B220F331FE6EA20
:10111000F0E020A331A302A713A708C100E0E6EA8C
:10112000F0E0028F038FA4CF0091AF00013059F49B
:10113000E6EAF0E0028D138D0F5F1F4F028F138FD1
:101140008DE000E0F8CE023049F4E6EAF0E0048DEC
:10115000158D0F5F1F4F048F158FF2CF033009F0ED
:10116000EDCE89E004E05ACF0091AF00023059F48F
:10117000E6EAF0E0048D158D0F5F1F4F048F158F89
:101180008DE000E0CCCE013049F4E6EAF0E0028DDB
:10119000138D0F5F1F4F028F138FF2CF033019F49F
:1011A00089E004E0FECE8DE0B7CE0091B6000230BB
:1011B00009F43ECF0091AF00033099F28AE001E0DC
:1011C0000093DC0000E22ACF0091DC00002359F3F9
:1011D00000E00093DC0087E008E020CFE6EAF0E0E2
:1011E00005811681278130852017310790F485E02D
:1011F000E5EEF0E00089118922893389201B310B4B
:10120000220F331FE6EAF0E020A331A304A715A7BD
:101210008DC00217130790F486E0E5EEF0E004813C
:10122000158126813781201B310B220F331FE6EAFF
:10123000F0E020A331A306A717A778C08AE001E752
:1012400012E0EDCE88E00091AA0014E0019FE5EEE7
:10125000F0E0E00DF11D0281138120813181021B3C
:10126000130B000F111FE6EAF0E000A311A3009199
:10127000AA0014E0019FF001EB51FF4F00811181A2
:10128000E6EAF0E000AB11AB51C00091B6000023DC
:1012900051F4E6EAF0E000AD039500AF06890A9547
:1012A000068B80E14ECF013041F4E6EAF0E000AD7C
:1012B0000A9500AF06890395F3CF023009F473CF86
:1012C0008CE036CE0091BC0040E050E044D28CE08F
:1012D00002E010E0E6EAF0E000A311A30091DE00D6
:1012E000043010F003E003C0023018F401E0009372
:1012F000DE000091DE0042E050E02DD20091DE00E1
:10130000013029F4E5EEF0E0048915890BC00230C4
:1013100019F4E1E2F2E004C00330A1F7E5E2F2E003
:1013200000811181E6EAF0E006A317A3082F899156
:10133000089578D2F4D00093E00004E009BF7894D7
:1013400002E80FBD09E10EBD00E007BD00EF06BDDC
:1013500000E00BBD0ABD0CE101BD01BD00E50DB90A
:1013600001E00EB90091E000002321F00FEF01BB76
:101370000CEF02C000E001BB04BB0FE207BBEED0E4
:101380006BD004E010E0F3D7112311F40130B9F46D
:1013900005EE10E08BD7902F81E00BC0082F99D776
:1013A000003022E0120721F4082FAFD7082FC6D74C
:1013B0008395981798F700E044E050E0CCD100E026
:1013C00010E0D5D7212F1093BC00273010F4013046
:1013D00019F403E00093BC0002E010E0C8D7212F0D
:1013E0001093DE00243020F4222311F0013019F490
:1013F00001E00093DE000091DE00013029F4E5EE0B
:10140000F0E0048915890BC0023019F4E1E2F2E042
:1014100004C0033041F4E5E2F2E000811181E6EA24
:10142000F0E006A317A303E010E0A1D7002349F4DE
:101430002091E000222329F4212F0FEA10E0CFDCD5
:1014400009C000E00093B30000E20093B40000E3A1
:101450000093B500E2E0F1C100E00093D8000093F2
:10146000DB000093DC0001E00093C90000E0009382
:10147000DD0010E0E6EAF0E0028F038F048F058FB5
:10148000068F078F0093DA000583068307830087A2
:101490000FE90093A6001093A9000FEF0093A80096
:1014A0001093A7001093AA001093B30000E20093DA
:1014B000B40000E30093B5001093B00004E0009383
:1014C000AF001093B2000FEF0093B10003E0009360
:1014D000B6000093BB001093BA000093B8000093CD
:1014E000B9001093B7001093BD001093BE00109385
:1014F000BF0002E612E000A311A300E00093BC00CD
:1015000001E00093DE0000E00093D900E5EEF0E09A
:1015100004891589E6EAF0E006A317A30895BE98AA
:10152000C69A06B3007405950595E2EEF0E01081C9
:10153000139510831091E200193050F0053010F42B
:1015400000E001C001E00093E00000E00093E20051
:10155000002311F400E0089501E0089561D101E055
:101560003BD802ED34D800E032D800E030D80CE2AD
:101570002ED880E003C000E02AD883958430D8F3C9
:1015800080E026C004E0809FA5EEB0E0A00DB11D74
:1015900000E01DD820E02D930C93119700E017D8A0
:1015A00010E02D913C91200F311F3C932E9300E0D1
:1015B0000ED820E0FD012283038300E008D810E06C
:1015C000FD0122813381200F311F228333838395D4
:1015D0008837C0F200E000D8E4E02DC123D180E0DC
:1015E00090E006C000E0FC01EB53FD4F0083019644
:1015F000883001E09007B0F3E2E01FC1E6EAF0E0D6
:1016000000A111A1012B39F000A111A1015010403E
:1016100000A311A3089501E00093DB000895FA935D
:10162000EA930A925A934A933A932A931A930A9303
:101630003FB700E00BBDE6EAF0E0068D178DF8013C
:10164000EB53FD4F008110E046E02091BC00421BAF
:101650008DD00ABDE6EAF0E004A9039504AB009141
:10166000DA00023049F400E00093DA00068D178DAD
:101670000F5F1F4F068F178F068D178D083021E0E3
:10168000120728F000E0068F078F0093DD00068D1B
:10169000178D0B3F20E01207A0F00091DD00002322
:1016A00081F401E00093DD000091D800023039F0B0
:1016B000013029F40091E10041E050E04CD020934A
:1016C000D8003FBF099119912991399149915991B8
:1016D0000990E991F9911895F901328120E0F8011A
:1016E00002810C73200F8901E8E6F2E052C001E0AC
:1016F000089502E0089503E0089504E0089505E0E8
:10170000089506E0089507E0089508E0089509E0C7
:1017100008950AE008950BE008950CE008950FE0A5
:101720000895BCC00FE90DBF00E00EBFC0E8D0E0D7
:101730008BD0002309F098D077DB11D0F2CFE1995C
:10174000FECF08954F5F5F4F4EBB5FBBF894E29AA8
:10175000E19A0FBE08950FB6F2DF0DBBF5CFE1CFD2
:101760004A951AF016950795FBCF08954A951AF0F9
:1017700015950795FBCF0895759165915591459104
:10178000159011FA259035900895F9DF041B10E0AB
:1017900003C0F4DF041B150B20E030E005C0ECDFD4
:1017A000041B150B260B370BB8F010FC17C0459126
:1017B0000590E00FF11F0417100540E024073407DF
:1017C00058F436F404910024F101E01BF009099467
:1017D000E00FF11F25903590F101099411F4D6F72F
:1017E000F1CF31960EF0319650E060E070E0459117
:1017F0004B3F48F089F34F3F29F04E3F11F0759170
:10180000659155914591041B150B260B370B39F348
:1018100018F3E7CF9A928A927A926A925A924A92EF
:10182000BA93AA939A938A930895998488847F801F
:101830006E805D804C80BB81AA8199818881F0E0B7
:10184000EC0FFD1FEF01089501E0089520E006D0A0
:10185000E9F70895259102D0E9F708952D930150F5
:101860001040202F212B089580EA92E0FC01059181
:101870001491FC013296A591B491FC013496259106
:101880003491422F432B19F0F901E4DF01C0DEDF70
:10189000069612E08C3A910748F30895FFCF0000B6
:1018A0000100010000000000000000000000000036
:1018B0000000000000000000000000000000000028
:1018C0000000000000000000000000000000000018
:1018D0000000000000000000000000000000000DFB
:0118E0000007
:00000001FF
:00000001FF
