:100000004CCB18951895189518951895189518951E
:10001000C8CA189518951895189518951895189593
:10002000189518951895000002021100AF01000202
:100030009F01CE01D801E201EC01B901AF01B90184
:10004000B901F601B901000200020002000201013B
:100050008E05B50401790501330506C304016B055E
:1000600001250504F40404ED040EAE04018005012D
:100070003A0502D104015D0501170502CA040164B5
:1000800005011E0526DF04014F050109050ED804F0
:100090000156050110051F410501FB0408FB04146E
:1000A000870542BC04017205012C0502E6040148E3
:1000B00005010205FB00030001A7065D06026106BB
:1000C0000E5B060263060765060B69060C670648A9
:1000D0005F06016B06FE02C89D06FE02C58506038B
:1000E0009906FE02F74906024D06079506074706E0
:1000F000024F060751060B55060C530612930605D0
:100100009706314B06015706FE01CD9106FFFC8F85
:1001100006FE09FE4506FE0AC02D060229060E2F20
:10012000060227060725060B21060C2306101D06CE
:10013000382B06011F06FE0B874106023D060E43C3
:1001400006023B060739060B35060C37061031064A
:10015000383F06013306FE0E8771060275060E6FE4
:10016000060277060779060B7D060C7B06487306A8
:10017000017F068DA5060CA106FE01F49F06FE0474
:100180000C9B06FE32EE19060215060AA306041B96
:10019000060213060711060B0D060C0F06100906C2
:1001A000381706010B06FE05870506020106016DDC
:1001B0000608830601590603870601070602FF05A4
:1001C00007FD05078D0604F905018B060BFB0512DB
:1001D000810605890631030601F505FB00000A09C1
:1001E000110074074B07F9060808250897089708B7
:1001F0006508B108440857080B07B9084F070F07EF
:100200001807D9087F30014A0B460BFE4000440B0B
:10021000FE2000420BFE1000400BFE08003E0BFECD
:1002200004003C0BFE02003A0BFE0100380BE036E6
:100230000B10340B14480B04320BFB004400A000DD
:10024000FA17EA02E400000020E00DC044E0249F19
:10025000F801E00DF11D42815381413060E2560703
:1002600008F032E02395283788F3032F089588DAC1
:10027000A02F80E090E00DC00A2F69D107ED62D178
:1002800000E060D1B02F00E062D10B2F0170900F21
:1002900083958A3088F3953010F000E001C000E1CA
:1002A00012E0E4E078CA8A93802F51D107EC4AD15A
:1002B00004E948D100E846D10AE944D100E047D139
:1002C000082F45D107ED3ED100E03CD107FB00E00F
:1002D000E6F73DD1899108958A93802F38D10DE3B7
:1002E00031D10AE22FD100E82DD107EA2BD100E06D
:1002F0002ED1082F2CD107ED25D100E023D107FB0B
:1003000000E0E6F724D18991089503D0102F00E092
:100310000895E199FECF1FBB0EBBE09A0DB310E02C
:10032000089528DA802F4901912FDA012B016A8480
:100330007B8483950091E100E6E2F0E0DBC9282FA1
:10034000EAECF0E000811181B9D010E0EAECF0E0D5
:1003500020813181200F311F208331835AC0282F03
:10036000E6EDF0E000811181A9D010E0E6EDF0E0CB
:10037000EFCF282FECECF0E0008111819FD010E04E
:10038000ECECF0E020813181200F311F208331839C
:10039000B301A2019D01092F42D03BC0282FEEECF2
:1003A000F0E0008111818AD010E0EEECF0E0D0CFD7
:1003B000282FE0EDF0E00081118180D010E0E0ED29
:1003C000F0E0C6CF282FE2EDF0E00081118176D079
:1003D00010E0E2EDF0E0BCCF282FE4EDF0E000818A
:1003E00011816CD010E0E4EDF0E0B2CF282FECECFE
:1003F000F0E00081118162D010E0ECECF0E0A8CFD9
:1004000080E007C080E00DE00093E100F40180830C
:100410008183823008F080E0082FECE0B6C9B0D9C3
:10042000DA010130A1F4ECECF0E040815181F901F6
:100430000280138040155105C8F5ECECF0E04081D6
:100440005181F901008011804015510578F1023089
:10045000B9F4ECECF0E020813181FD01428153815F
:100460002417350750F4ECECF0E0208131814D91F8
:100470005C9111972417350718F40D911C9118C041
:100480000330D1F4ECECF0E000811181FB0122811A
:1004900033810217130748F4ECECF0E0008111817E
:1004A0002D913C910217130738F4FB010081118153
:1004B000ECECF0E000831183E4E06DC961D9B80190
:1004C000822F613000E2700710F421E003C022E0C7
:1004D0006050704246E08B01FED8B02F962F990FE6
:1004E000990F813011F4A0E004C0823011F493958B
:1004F000A8E0022F2CD002ED25D00B2F23D0092FFE
:1005000021D00A2F1FD090E003C000E01BD09395AC
:100510009430D8F3A0E0B0E008C014D0FD01EA5355
:10052000FD4F00838D0122D01196A83001E0B00765
:1005300000E098F30CD0823010F001E001C000E040
:10054000E4E029C90FB9779BFECF0FB108950023CE
:1005500019F4C29AC09A0895013019F4C098C2984B
:100560000895023011F4C09AC2980895E6ECF2E0C2
:10057000E00FF11F1081012F02950F701295107F6F
:10058000010F00950083089500E008950895002369
:1005900011F000E0089501E00895002311F001E05A
:1005A00001C000E00093A3001093A2000895E7D8D3
:1005B000D801822F932F442E00E02091A4008217AF
:1005C00060F033B18D01E0DF13B12091A40030E081
:1005D000A20FB31F11971C930BC013B130E0215031
:1005E0003040482F241B3040F901EC51FF4F10835D
:1005F000013031F412E000E0D0DF04E806BF1DC096
:100600000091A40010E0E82FF0E032960E171F07CB
:1006100014F013E010C0081758F0442049F4913248
:1006200011F404E901C004E806BF11E001E004C0D0
:1006300004EC06BF12E000E0B0DFE5E0ABC801313A
:1006400029F412E000E0A9DF04EA08C0013211F049
:10065000013331F412E000E0A0DF04E806BF0895A2
:10066000013419F418EB00E098DF089585D82801CB
:10067000922F832F042F452F662E772E000F02B95D
:10068000A0EAB0E0288539850D911C9111972017BB
:10069000310739F0FD010581039505832D933C93C6
:1006A0001197923008F440E00091A200005809F43C
:1006B00074C0085009F47DC0085109F468C001569F
:1006C00049F00A9509F444C00A9549F10D5509F419
:1006D0005EC057C000E00093A500292F820156DFBD
:1006E000813111F0813261F412E000E056DF00E068
:1006F0000093A40060B801B1072901B904EA26C03B
:10070000813311F0813441F412E000E046DF00E073
:100710000093A40004E41AC011E001E051C000E01D
:100720000093A500292F820131DF192F920102E0E9
:100730002EDF002339F011E001E02FDF813229F4B0
:1007400004E904C012E000E028DF04E806BF39C075
:1007500006B7102F17FD0FC00091A500053170F1ED
:1007600000E00093A500813111F0813211F412EF05
:1007700027C011E025C000E00093A50011B1187F4B
:100780001FC000E00093A500082F59DF1AC000E049
:100790000093A5000093A4000FC000E00093A50003
:1007A000FD01048103950483382F292F8201FFDE88
:1007B00008C000E00093A50004EC06BF12E000E0D2
:1007C000ECDEFD0102811381EAE0E1C723B323706F
:1007D000F801248325813481231719F4218123957D
:1007E00001C020E02183248125832181223008F467
:1007F00042C020E02183228123832381222319F018
:100800002481228306C02381222319F424812330EA
:10081000B9F32281233041F42381223029F4268147
:100820002395268320E017C02281233059F42381A9
:10083000213041F42681222329F026812A9526831E
:1008400021E009C02281233029F42381222311F4DD
:1008500022E001C023E020832681273010F026E02B
:1008600026832681233010F423E02683068140E08E
:1008700050E02AD7089523E020830895F80103B3B8
:10088000028302811381011719F40181039505C0C8
:1008900002811381011711F000E0018302810383BB
:1008A0000181053068F10091E100013049F10091CA
:1008B000E1000F3029F100E00183222321F00091B3
:1008C000E1000E3029F4028102FF02C000E006C000
:1008D000028100721481011719F403E00083089566
:1008E000028100731581011711F401E0F7CF028135
:1008F00008731681011711F402E0F0CF04E00083C1
:10090000089520B3F801228323813281231759F4FB
:100910002091E100273021F02091E1002F3019F4DF
:100920002181239501C020E021832281238321811D
:10093000253068F02091E100273049F420E0218340
:1009400022812083258136812783308701D0089535
:1009500017D7D8010C91EEE4F0E0CCC601E010E02E
:10096000FD01058316830FE2D8C002E010E0FD010F
:100970000583168300E3D1C003E010E0FD01058389
:10098000168301E3CAC004E010E0FD01058316836D
:1009900002E3C3C005E010E0FD010583168303E315
:1009A000BCC006E010E0FD010583168304E3B5C07A
:1009B00007E010E0FD010583168305E3AEC008E003
:1009C00010E0FD010583168306E3A7C009E010E0EF
:1009D000FD010583168307E3A0C00AE010E0FD01D6
:1009E0000583168308E399C00BE010E0FD01058341
:1009F000168302E492C00CE010E0FD01058316832B
:100A000003E48BC00DE010E0FD010583168307E0D1
:100A100084C00EE010E0FD010583168308E07DC070
:100A20000FE010E0FD010583168309E076C000E1C8
:100A300010E0FD01058316830AE06FC001E110E0BC
:100A4000FD01058316830BE068C002E110E0FD01A3
:100A5000058316830CE061C003E110E0FD0105830E
:100A600016830DE05AC004E110E0FD0105831683F2
:100A70000EE053C005E110E0FD01058316830FE091
:100A80004CC006E110E0FD010583168300E145C07E
:100A900007E110E0FD010583168301E13EC008E196
:100AA00010E0FD010583168302E137C009E110E083
:100AB000FD010583168303E130C00AE110E0FD016A
:100AC0000583168304E129C00BE110E0FD010583D5
:100AD000168305E122C00CE110E0FD0105831683B9
:100AE00006E11BC00DE110E0FD010583168307E15F
:100AF00014C00EE110E0FD010583168308E10DC06E
:100B00000FE110E0FD010583168309E106C00CE04A
:100B100010E0FD010583168307E4048300E0E4E0B0
:100B20003AC62ED6F801DB010C910058B1F00A95B7
:100B300059F00A95A1F00250A1F00450A1F008501C
:100B4000A1F0005151F13EC0442321F00091E10099
:100B50000E3019F400E000833CC004E0FCCF03E059
:100B6000FACF01E0F8CF02E0F6CF018103950183CF
:100B70000181102F13951183053158F100E0018395
:100B800004E0008301E010E0F9010583168385810C
:100B900096810197878390871CC00181039501830B
:100BA0000181102F13951183053198F000E0018326
:100BB00004E0008300E0F9010583068385819681C6
:100BC0000196E8CF04E00083F901078110850583D1
:100BD0001683E4E0E0C5D4D5D801F901118100E025
:100BE0002281020FE6EBF0E089C507E0FD010483F6
:100BF000B3C008E0FBCF09E0F9CF0AE0F7CF0BE084
:100C0000F5CF0CE0F3CF0DE0F1CF0EE0EFCF0FE02A
:100C1000EDCF00E1EBCF01E1E9CF02E1E7CF03E166
:100C2000E5CF04E1E3CF05E1E1CF06E1DFCF07E166
:100C3000DDCF08E1DBCF09E1D9CF0AE1D7CF0BE166
:100C4000D5CF0CE1D3CF0DE1D1CF0EE1CFCF0FE166
:100C5000CDCF00E2CBCF01E2C9CF02E2C7CF03E2A2
:100C6000C5CF04E2C3CF05E2C1CF06E2BFCF07E2A2
:100C7000BDCF08E2BBCF09E2B9CF0AE2B7CF0BE2A2
:100C8000B5CF0CE2B3CF0DE2B1CF0EE2AFCF0FE2A2
:100C9000ADCF00E3ABCF01E3A9CF02E3A7CF03E3DE
:100CA000A5CF04E3A3CF05E3A1CF06E39FCF07E3DE
:100CB0009DCF08E39BCF09E399CF0AE397CF0BE3DE
:100CC00095CF0CE393CF0DE391CF0EE38FCF0FE3DE
:100CD0008DCF00E48BCF01E489CF02E487CF01E51B
:100CE00085CF02E583CF03E581CF04E57FCF05E51E
:100CF0007DCF06E57BCF07E579CF08E577CF09E51E
:100D000075CF03E473CF04E471CF05E46FCF06E43D
:100D10006DCF07E46BCF08E469CF09E467CF0AE43D
:100D200065CF0BE463CF0CE461CF0DE45FCF0EE43D
:100D30005DCF0AE55BCF0BE559CF0CE557CF0DE54D
:100D400055CF0EE553CF0FE551CF00E64FCFFD0154
:100D50000581168107831087E4E01DC58A93F80199
:100D60002181203250F020E0218382818872282F57
:100D700006D043E050E0082FA7D48991089522239C
:100D800039F420E0F801248320E2258320E308C021
:100D9000283041F420E0F801248320E2258328E371
:100DA00026830895203239F420E2F801248320E0DC
:100DB000258320E1F5CF283221F720E2F8012483B2
:100DC00020E0258328E1ECCFDDD480E090E006C070
:100DD000FC01EA53FD4F00E000830196883001E0FA
:100DE0009007B0F3E2E0D9C4CBD4912FECEDF1E061
:100DF00081C48BE0A6EEB0E0FD01008D118DE6EA26
:100E0000F0E05A962D913C91201B310B220F331F9D
:100E100020A331A3FCC18EE0E6EAF0E0C3C1E6EA1C
:100E2000F0E00091AF00002309F0F4C18EE0F5C1BD
:100E300026EA30E00FEA10E00AD4E6EAF0E0009398
:100E4000DF001091B000133020F41091A700133090
:100E5000C8F00D30B8F480E0A6EEB0E014E0019FD9
:100E6000A00DB11D58960D911C9159975A962D9130
:100E70003C91201B310B220F331F20A331A300AB69
:100E800011AB93C10091B600023019F48DE002E37A
:100E9000F6C08FE087C10FEA10E060DFBBC1E6EA71
:100EA000F0E00091AF000023A9F482E0A6EEB0E0EC
:100EB00012960D911C9113972D913C911197021B45
:100EC000130B000F111F00A311A30D911C9104A37C
:100ED00015A3A6C11091B800123041F42091DB0097
:100EE0003091E000232B11F48FE095C1113049F4CB
:100EF0001091DB002091E000122B19F481E00EE349
:100F0000E2C01091B600123009F447C1033031F449
:100F100000E0028F038F048F058F94C0013081F4AD
:100F2000228D338D233D10E0310750F4028D138D57
:100F30000F5F1F4F028F138F00E0048F058F2EC0AD
:100F40000130D9F4228D338D233D10E03107A8F014
:100F5000128F138F83E0A6EEB0E01C960D911C91CA
:100F60001D971E962D913C91201B310B220F331F94
:100F700020A331A300A711A753C1023089F4248D07
:100F8000358D273311E0310758F4048D158D0F5F2F
:100F90001F4F048F158F00E0028F038F8DE03EC13D
:100FA0000230E1F4048D158D073321E01207B0F013
:100FB00000E0048F058F84E0A6EEB0E018960D9156
:100FC0001C9119971A962D913C91201B310B220FE1
:100FD000331F20A331A302A713A722C100E0028F71
:100FE000038F048F058F8DE000A301A39D3009F4CA
:100FF00017C110E08AD91093BC002091BC002730A3
:1010000018F4013009F00CC104E00093BC0008C1E1
:10101000E6EAF0E00091AF00013039F4028D138D63
:101020000F5F1F4F028F138F08C0023041F4048DF1
:10103000158D0F5F1F4F048F158F8DE0EEC00330AD
:1010400009F0E8C089E004E03EC0E6EAF0E0009183
:10105000AF00023039F4048D158D0F5F1F4F048FE0
:10106000158F9FC0013039F4028D138D0F5F1F4F14
:10107000028F138F96C0033031F489E004E010E052
:1010800000A311A392C08DC0E6EAF0E00091B60083
:10109000023009F482C00091AF00033011F489E0FE
:1010A00011C08AE001E00093DC0000E20CC0E6EA37
:1010B000F0E00091DC00002309F473C000E000932D
:1010C000DC0087E008E010E051C0E6EAF0E00581CE
:1010D0001681278130852017310798F485E0A6EE28
:1010E000B0E050960D911C91519752962D913C91E4
:1010F000201B310B220F331F20A331A304A715A7F8
:101100008FC00217130768F586E0A6EEB0E01496CC
:101110000D911C91159716962D913C91201B310B2A
:10112000220F331F20A331A306A717A779C088E099
:10113000A6EEB0E0E6EAF0E00091AA0014E0019F1C
:10114000A00DB11D0D911C91119712962D913C91FE
:10115000201B310B220F331F20A331A300AB11AB97
:101160005FC08AE0E6EAF0E00DE012E000A311A320
:1011700057C0E6EAF0E00091B600002331F400AD7C
:10118000039500AF06890A9507C0013041F400AD10
:101190000A9500AF06890395068B80E13EC00230B8
:1011A00031F48DE000E000A301A30EDE39C08CE035
:1011B00034C0E6EAF0E00091BC0040E050E084D2A8
:1011C0008CE002E010E000A311A30091DE000430E7
:1011D00010F003E003C0023018F401E00093DE00D9
:1011E0000091DE0042E050E06FD20091DE0001305D
:1011F00051F0023019F4A2E2B2E007C0033019F452
:10120000A6E2B2E002C0AAEFB0E00D911C9106A3E5
:1012100017A306C08DE0E6EAF0E000E000A301A31A
:10122000082FE4E0B8C2ACD2BE98C69A06B3102F1D
:1012300016FB10E014F9E6EAF0E0DF01DD960C9110
:1012400003950C93093050F0153010F400E001C004
:1012500001E002AFFD9600E0008310E0112311F4DD
:1012600000E001C001E0E4E096C2E6EAF0E000A19F
:1012700011A1012B39F000A111A10150104000A3D0
:1012800011A3089501E005AB08957AD2E6EAF0E0F3
:1012900000E002AB05AB06AB01E003A300E007AB47
:1012A000028F038F048F058F068F078F04AB058392
:1012B0000683078300870FE9008300E003830FEFB5
:1012C000028300E001830483058700E2068700E3D0
:1012D000078700E0028704E0018700E004870FEF42
:1012E000038703E0008B058B00E0048B03E0028B97
:1012F000038B00E0018B078B008F018F02ED10E064
:1013000000A311A3168B01E000AF13ABAAEFB0E06E
:101310000D911C9106A317A3E4E03DC231D201E078
:1013200016D902ED0FD900E00DD900E00BD90CE27F
:1013300009D980E003C000E005D983958430D8F353
:1013400080E026C004E0809FA6EEB0E0A00DB11DB5
:1013500000E0F8D820E02D930C93119700E0F2D82C
:1013600010E02D913C91200F311F3C932E9300E013
:10137000E9D820E0FD012283038300E0E3D810E0F8
:10138000FD0122813381200F311F22833383839516
:101390008837C0F200E0DBD8E4E0FDC1F1D1A6EA75
:1013A000B0E041DF0093E00004E009BF789402E878
:1013B0000FBD09E10EBD00E007BD00EF06BD00E076
:1013C0000BBD0ABD0CE101BD01BD00E50DB901E099
:1013D0000EB90091E000002321F00FEF01BB0CEFEC
:1013E00002C000E001BB04BB0FE207BB97DF4DDF8B
:1013F00004E010E08AD7112311F40130B9F406EEAD
:1014000010E022D7902F81E00BC0082F30D700309A
:1014100022E0120721F4082F46D7082F5DD78395C5
:10142000981798F700E044E050E04ED100E010E05B
:101430006CD71093BC002091BC00273010F4013011
:1014400019F403E00093BC0002E010E05ED71093B3
:10145000DE002091DE00243020F4222311F0013040
:1014600019F401E00093DE000091DE00013029F460
:10147000E6EEF0E0048915890BC0023019F4E2E2CF
:10148000F2E004C0033039F4E6E2F2E000811181B9
:10149000FD0106A317A303E010E037D7002349F4AA
:1014A0002091E000222329F4212F0FEA10E067DCCD
:1014B00009C000E00093B30000E20093B40000E331
:1014C0000093B500E4E067C15BD168DFA895A6EAA8
:1014D000B0E00091E000002351F1FD0100A111A155
:1014E0001A930A9370E060E050E041E031E323E0BA
:1014F0000DEB10E0BBD8FD0102A313A30091C900BE
:101500000023A9F06DEB70E04091DB0026EA30E0AB
:101510000FEA10E006DB2DEB30E006EA10E05BDBC3
:1015200000E00093BD000093BE000093BF00009157
:10153000D800002361F601E00093D80006E212E033
:101540001A930A9362E272E04AEF50E01091DE00D3
:1015500026EC30E00091D900E4D60093D90085DE76
:1015600006EB10E033D95FDE0091E000002341F488
:101570002091DB000FEA10E081D906EA10E0C1D922
:10158000FD0100A111A1012B41F40091E1000093A4
:10159000E200102F29DC0093E10002E00093D80064
:1015A00095CFBA93AA93FA93EA930A925A934A93DD
:1015B0003A932A931A930A933FB700E00BBDE6EAE9
:1015C000F0E0068D178DD801AA53BD4F0C9110E0A5
:1015D00046E02689421B84D00ABD04A9039504ABCA
:1015E00004A9023041F400E004AB068D178D0F5FB3
:1015F0001F4F068F178F068D178D083021E01207B9
:1016000020F000E0068F078F07AB068D178D0B3F8C
:1016100020E0120778F007A9002361F401E007AB8E
:1016200002A9023031F0013021F403AD41E050E075
:101630004BD022AB3FBF0991199129913991499122
:1016400059910990E991F991A991B9911895F901E8
:10165000328120E0F80102810C73200F8901E4E05F
:10166000F2E04CC001E0089502E0089503E008951F
:1016700004E0089505E0089506E0089507E0089560
:1016800008E0089509E008950AE008950BE0089540
:101690000CE008950FE00895AFC00FE90DBF00E022
:1016A0000EBFC0E8D0E080D0002309F08BD00CDF63
:1016B0000FD0F2CFE199FECF08954EBB5FBBF894F7
:1016C000E29AE19A0FBE08950FB6F4DF0DBBF5CF95
:1016D000E3CF169507954A95E2F708951595079576
:1016E0004A95E2F7089555914591159011FA259084
:1016F00035900895F9DF041B10E003C0F4DF041BEC
:10170000150B20E030E000C0B8F010FC17C0459188
:101710000590E00FF11F0417100540E0240734077F
:1017200058F436F404910024F101E01BF009099407
:10173000E00FF11F25903590F101099411F4D6F7CF
:10174000F1CF31960EF0319650E060E070E04591B7
:101750004B3F48F089F34F3F29F04E3F11F0759110
:10176000659155914591041B150B260B370B39F3E9
:1017700018F3E7CF9A928A927A926A925A924A9290
:10178000BA93AA939A938A930895998488847F80C0
:101790006E805D804C80BB81AA8199818881F0E058
:1017A000EC0FFD1FEF01089501E0089520E02D9357
:1017B00001501040E1F7089525912D9301501040FC
:1017C000D9F708958CE392E0FC0105911491FC0196
:1017D0003296A591B491FC01349625913491422F13
:1017E000432B19F0F901E8DF01C0E0DF069612E0B3
:1017F0008834910748F30895FFCF000001000000EE
:1018000000000000000000000000000000000000D8
:1018100000000000000000000000000000000000C8
:1018200000000000000000000000000000000000B8
:0E18300000000000000000000000000D0D0090
:00169A014F
:00000001FF
